{
  "transactions": [
    {
      "hash": "0x8f73a8625bf0b6a896c1ffe5c76d3c6d2ed50bee26e4359fbac6be6889d8ddc6",
      "transactionType": "CALL",
      "contractName": null,
      "contractAddress": "0x301d9ed91bacb39b798a460d133105ba729c6302",
      "function": "mint(address,uint256)",
      "arguments": [
        "0x656fE1C1a9c92560d9183C42B8E6882c9e440b50",
        "1000000000"
      ],
      "transaction": {
        "from": "0x656fe1c1a9c92560d9183c42b8e6882c9e440b50",
        "to": "0x301d9ed91bacb39b798a460d133105ba729c6302",
        "gas": "0x123a3",
        "value": "0x0",
        "input": "0x40c10f19000000000000000000000000656fe1c1a9c92560d9183c42b8e6882c9e440b50000000000000000000000000000000000000000000000000000000003b9aca00",
        "nonce": "0x54",
        "chainId": "0x106a"
      },
      "additionalContracts": [],
      "isFixedGasLimit": false
    },
    {
      "hash": "0xe32aeba1cacb49e2630bdb9f1e13dfb0699cc8925299ea1ac64d87993de523a9",
      "transactionType": "CALL",
      "contractName": null,
      "contractAddress": "0x03f60361aa488826e7da7d7adb2e1c6fc96d1b8b",
      "function": "mint(address,uint256)",
      "arguments": [
        "0x656fE1C1a9c92560d9183C42B8E6882c9e440b50",
        "1000000000"
      ],
      "transaction": {
        "from": "0x656fe1c1a9c92560d9183c42b8e6882c9e440b50",
        "to": "0x03f60361aa488826e7da7d7adb2e1c6fc96d1b8b",
        "gas": "0x123a3",
        "value": "0x0",
        "input": "0x40c10f19000000000000000000000000656fe1c1a9c92560d9183c42b8e6882c9e440b50000000000000000000000000000000000000000000000000000000003b9aca00",
        "nonce": "0x55",
        "chainId": "0x106a"
      },
      "additionalContracts": [],
      "isFixedGasLimit": false
    },
    {
      "hash": "0x8a3a559241f2113c9a611362373c1bfef4c60ed76d3f4b02d3c8dd22029b1d26",
      "transactionType": "CALL",
      "contractName": null,
      "contractAddress": "0x18bea3cda9de68e74ba9f33f1b2e11ad345112f0",
      "function": "mint(address,uint256)",
      "arguments": [
        "0x656fE1C1a9c92560d9183C42B8E6882c9e440b50",
        "1600000000000"
      ],
      "transaction": {
        "from": "0x656fe1c1a9c92560d9183c42b8e6882c9e440b50",
        "to": "0x18bea3cda9de68e74ba9f33f1b2e11ad345112f0",
        "gas": "0x123c6",
        "value": "0x0",
        "input": "0x40c10f19000000000000000000000000656fe1c1a9c92560d9183c42b8e6882c9e440b5000000000000000000000000000000000000000000000000000000174876e8000",
        "nonce": "0x56",
        "chainId": "0x106a"
      },
      "additionalContracts": [],
      "isFixedGasLimit": false
    },
    {
      "hash": "0xef54cccfb51c9894ec4332acb51e4ce09fdd2c3193ec3b829912d9dc895f0987",
      "transactionType": "CALL",
      "contractName": null,
      "contractAddress": "0x97f9812a67b6cba4f4d9b1013c5f4d708ce9aa9e",
      "function": "mint(address,uint256)",
      "arguments": [
        "0x656fE1C1a9c92560d9183C42B8E6882c9e440b50",
        "15000000000000"
      ],
      "transaction": {
        "from": "0x656fe1c1a9c92560d9183c42b8e6882c9e440b50",
        "to": "0x97f9812a67b6cba4f4d9b1013c5f4d708ce9aa9e",
        "gas": "0x123c6",
        "value": "0x0",
        "input": "0x40c10f19000000000000000000000000656fe1c1a9c92560d9183c42b8e6882c9e440b5000000000000000000000000000000000000000000000000000000da475abf000",
        "nonce": "0x57",
        "chainId": "0x106a"
      },
      "additionalContracts": [],
      "isFixedGasLimit": false
    },
    {
      "hash": "0x60d7e8123dd75f08fa836635a195547178ae67cdfa0267a2ec66f5e2a2f35c04",
      "transactionType": "CALL",
      "contractName": null,
      "contractAddress": "0xd10f51695bc3318759a75335efe61e32727330b6",
      "function": "mint(address,uint256)",
      "arguments": [
        "0x656fE1C1a9c92560d9183C42B8E6882c9e440b50",
        "1000000000"
      ],
      "transaction": {
        "from": "0x656fe1c1a9c92560d9183c42b8e6882c9e440b50",
        "to": "0xd10f51695bc3318759a75335efe61e32727330b6",
        "gas": "0x123a3",
        "value": "0x0",
        "input": "0x40c10f19000000000000000000000000656fe1c1a9c92560d9183c42b8e6882c9e440b50000000000000000000000000000000000000000000000000000000003b9aca00",
        "nonce": "0x58",
        "chainId": "0x106a"
      },
      "additionalContracts": [],
      "isFixedGasLimit": false
    },
    {
      "hash": "0x8bbfc77c0ef2e7fab44ad6ae20ee1d5c9c124d686c476a3e3b589fee15c52808",
      "transactionType": "CALL",
      "contractName": null,
      "contractAddress": "0x5e8b38dc8e00c2332ac253600975502cf9fbf36a",
      "function": "mint(address,uint256)",
      "arguments": [
        "0x656fE1C1a9c92560d9183C42B8E6882c9e440b50",
        "2000000000000"
      ],
      "transaction": {
        "from": "0x656fe1c1a9c92560d9183c42b8e6882c9e440b50",
        "to": "0x5e8b38dc8e00c2332ac253600975502cf9fbf36a",
        "gas": "0x123c6",
        "value": "0x0",
        "input": "0x40c10f19000000000000000000000000656fe1c1a9c92560d9183c42b8e6882c9e440b50000000000000000000000000000000000000000000000000000001d1a94a2000",
        "nonce": "0x59",
        "chainId": "0x106a"
      },
      "additionalContracts": [],
      "isFixedGasLimit": false
    },
    {
      "hash": "0xb42265a9272027e16bbf4c000646987221c7458002eb617781e0cf636135024b",
      "transactionType": "CALL",
      "contractName": null,
      "contractAddress": "0xdfae672ad0e094ee64e370da99b1e37ab58aac4f",
      "function": "mint(address,uint256)",
      "arguments": [
        "0x656fE1C1a9c92560d9183C42B8E6882c9e440b50",
        "7000000000"
      ],
      "transaction": {
        "from": "0x656fe1c1a9c92560d9183c42b8e6882c9e440b50",
        "to": "0xdfae672ad0e094ee64e370da99b1e37ab58aac4f",
        "gas": "0x1137f",
        "value": "0x0",
        "input": "0x40c10f19000000000000000000000000656fe1c1a9c92560d9183c42b8e6882c9e440b5000000000000000000000000000000000000000000000000000000001a13b8600",
        "nonce": "0x5a",
        "chainId": "0x106a"
      },
      "additionalContracts": [],
      "isFixedGasLimit": false
    }
  ],
  "receipts": [
    {
      "status": "0x1",
      "cumulativeGasUsed": "0x17bb7",
      "logs": [
        {
          "address": "0x301d9ed91bacb39b798a460d133105ba729c6302",
          "topics": [
            "0xddf252ad1be2c89b69c2b068fc378daa952ba7f163c4a11628f55a4df523b3ef",
            "0x0000000000000000000000000000000000000000000000000000000000000000",
            "0x000000000000000000000000656fe1c1a9c92560d9183c42b8e6882c9e440b50"
          ],
          "data": "0x000000000000000000000000000000000000000000000000000000003b9aca00",
          "blockHash": "0x0b9a98279239cb60ea2b319df44b9476b90f2bcd3fe0281e06f898578584e223",
          "blockNumber": "0x1d97c47",
          "blockTimestamp": "0x6957fb6e",
          "transactionHash": "0x8f73a8625bf0b6a896c1ffe5c76d3c6d2ed50bee26e4359fbac6be6889d8ddc6",
          "transactionIndex": "0x1",
          "logIndex": "0x0",
          "removed": false
        }
      ],
      "logsBloom": "0x00000000000000000000000000000000000000000000000000000000000000000020000400000000000000000000000000000000000000000000000000000000000000000000000000000008000000020000000000000000000000000000000000000000020000000000000000400800000000000000000000000010000000000000000000000000000000000000000000000000000000000000000000000000000004000000000000000000000000000000000000000000000000000000000000000002000000000000000000000000000000000000000000000000000020000000000000000000000000000000000000000000000000000000000000002000",
      "type": "0x2",
      "transactionHash": "0x8f73a8625bf0b6a896c1ffe5c76d3c6d2ed50bee26e4359fbac6be6889d8ddc6",
      "transactionIndex": "0x1",
      "blockHash": "0x0b9a98279239cb60ea2b319df44b9476b90f2bcd3fe0281e06f898578584e223",
      "blockNumber": "0x1d97c47",
      "gasUsed": "0xc769",
      "effectiveGasPrice": "0xfe",
      "blobGasUsed": "0x9c40",
      "from": "0x656fe1c1a9c92560d9183c42b8e6882c9e440b50",
      "to": "0x301d9ed91bacb39b798a460d133105ba729c6302",
      "contractAddress": null,
      "daFootprintGasScalar": "0x190",
      "l1BaseFeeScalar": "0x2af8",
      "l1BlobBaseFee": "0x1",
      "l1BlobBaseFeeScalar": "0x109618",
      "l1Fee": "0x12e",
      "l1GasPrice": "0xb",
      "l1GasUsed": "0x640"
    },
    {
      "status": "0x1",
      "cumulativeGasUsed": "0x17bb7",
      "logs": [
        {
          "address": "0x03f60361aa488826e7da7d7adb2e1c6fc96d1b8b",
          "topics": [
            "0xddf252ad1be2c89b69c2b068fc378daa952ba7f163c4a11628f55a4df523b3ef",
            "0x0000000000000000000000000000000000000000000000000000000000000000",
            "0x000000000000000000000000656fe1c1a9c92560d9183c42b8e6882c9e440b50"
          ],
          "data": "0x000000000000000000000000000000000000000000000000000000003b9aca00",
          "blockHash": "0x5f954d7f2dd08b986468de1d2134f4702adfdb20e39dfeb2efd3eea8bdd463ae",
          "blockNumber": "0x1d97c48",
          "blockTimestamp": "0x6957fb70",
          "transactionHash": "0x60d7e8123dd75f08fa836635a195547178ae67cdfa0267a2ec66f5e2a2f35c04",
          "transactionIndex": "0x1",
          "logIndex": "0x0",
          "removed": false
        }
      ],
      "logsBloom": "0x00000000000000000000000000000000000000000000000000000000000000000000000400000000000200000000000000000000000000000000000000000000000000000000000000000008000000020000000000000000000000000000000000000000020000000000000000420800000000000000000000000010000000000000000000000000000000000000000000000000000000000000000000000000000000000000000000000000000000000000000000000000000000000000000000000002000000000000000000000000000000000000000000020000000020000000000000000000000000000000000000000000000000000000000000000000",
      "type": "0x2",
      "transactionHash": "0x60d7e8123dd75f08fa836635a195547178ae67cdfa0267a2ec66f5e2a2f35c04",
      "transactionIndex": "0x1",
      "blockHash": "0x5f954d7f2dd08b986468de1d2134f4702adfdb20e39dfeb2efd3eea8bdd463ae",
      "blockNumber": "0x1d97c48",
      "gasUsed": "0xc769",
      "effectiveGasPrice": "0xfe",
      "blobGasUsed": "0x9c40",
      "from": "0x656fe1c1a9c92560d9183c42b8e6882c9e440b50",
      "to": "0x03f60361aa488826e7da7d7adb2e1c6fc96d1b8b",
      "contractAddress": null,
      "daFootprintGasScalar": "0x190",
      "l1BaseFeeScalar": "0x2af8",
      "l1BlobBaseFee": "0x1",
      "l1BlobBaseFeeScalar": "0x109618",
      "l1Fee": "0x12e",
      "l1GasPrice": "0xb",
      "l1GasUsed": "0x640"
    },
    {
      "status": "0x1",
      "cumulativeGasUsed": "0x24338",
      "logs": [
        {
          "address": "0x18bea3cda9de68e74ba9f33f1b2e11ad345112f0",
          "topics": [
            "0xddf252ad1be2c89b69c2b068fc378daa952ba7f163c4a11628f55a4df523b3ef",
            "0x0000000000000000000000000000000000000000000000000000000000000000",
            "0x000000000000000000000000656fe1c1a9c92560d9183c42b8e6882c9e440b50"
          ],
          "data": "0x00000000000000000000000000000000000000000000000000000174876e8000",
          "blockHash": "0x5f954d7f2dd08b986468de1d2134f4702adfdb20e39dfeb2efd3eea8bdd463ae",
          "blockNumber": "0x1d97c48",
          "blockTimestamp": "0x6957fb70",
          "transactionHash": "0x8a3a559241f2113c9a611362373c1bfef4c60ed76d3f4b02d3c8dd22029b1d26",
          "transactionIndex": "0x2",
          "logIndex": "0x1",
          "removed": false
        }
      ],
      "logsBloom": "0x00000000000000000000000000000000000000000000000000000000000000000000000400000000000000000000000000000000000000000000000000000000000000000000000000000008000000020000000000000004000000000000000000000000020000000000000000400800000000000000000000000010000000000000000000000000000000000000000000000000000000000000000000000000000000000000000000000000000000000000000000000000000000000000000080000002000000000000000000000000000000000000000000000000000020000000000000000000000000000000000400000000000000000000000000000000",
      "type": "0x2",
      "transactionHash": "0x8a3a559241f2113c9a611362373c1bfef4c60ed76d3f4b02d3c8dd22029b1d26",
      "transactionIndex": "0x2",
      "blockHash": "0x5f954d7f2dd08b986468de1d2134f4702adfdb20e39dfeb2efd3eea8bdd463ae",
      "blockNumber": "0x1d97c48",
      "gasUsed": "0xc781",
      "effectiveGasPrice": "0xfe",
      "blobGasUsed": "0x9c40",
      "from": "0x656fe1c1a9c92560d9183c42b8e6882c9e440b50",
      "to": "0x18bea3cda9de68e74ba9f33f1b2e11ad345112f0",
      "contractAddress": null,
      "daFootprintGasScalar": "0x190",
      "l1BaseFeeScalar": "0x2af8",
      "l1BlobBaseFee": "0x1",
      "l1BlobBaseFeeScalar": "0x109618",
      "l1Fee": "0x12e",
      "l1GasPrice": "0xb",
      "l1GasUsed": "0x640"
    },
    {
      "status": "0x1",
      "cumulativeGasUsed": "0x30ab9",
      "logs": [
        {
          "address": "0x97f9812a67b6cba4f4d9b1013c5f4d708ce9aa9e",
          "topics": [
            "0xddf252ad1be2c89b69c2b068fc378daa952ba7f163c4a11628f55a4df523b3ef",
            "0x0000000000000000000000000000000000000000000000000000000000000000",
            "0x000000000000000000000000656fe1c1a9c92560d9183c42b8e6882c9e440b50"
          ],
          "data": "0x00000000000000000000000000000000000000000000000000000da475abf000",
          "blockHash": "0x5f954d7f2dd08b986468de1d2134f4702adfdb20e39dfeb2efd3eea8bdd463ae",
          "blockNumber": "0x1d97c48",
          "blockTimestamp": "0x6957fb70",
          "transactionHash": "0xb42265a9272027e16bbf4c000646987221c7458002eb617781e0cf636135024b",
          "transactionIndex": "0x3",
          "logIndex": "0x2",
          "removed": false
        }
      ],
      "logsBloom": "0x00000000000000002000000000000000000000000000000000000000000000000000000400000000000000000000000000000000000000000000000000000000000000000000000000000008000000020000000000000000000000000000000000000000020000000000000000400800000000000000000000000010000000000001000000000000000000000000000000000000000000000000000000000000000000000000000000000000000000000000000000000000000000000000000000000002000000000000000000000000000000000000000000000000000020000000000000000000000000000000000000000000000000000000000000020000",
      "type": "0x2",
      "transactionHash": "0xb42265a9272027e16bbf4c000646987221c7458002eb617781e0cf636135024b",
      "transactionIndex": "0x3",
      "blockHash": "0x5f954d7f2dd08b986468de1d2134f4702adfdb20e39dfeb2efd3eea8bdd463ae",
      "blockNumber": "0x1d97c48",
      "gasUsed": "0xc781",
      "effectiveGasPrice": "0xfe",
      "blobGasUsed": "0x9c40",
      "from": "0x656fe1c1a9c92560d9183c42b8e6882c9e440b50",
      "to": "0x97f9812a67b6cba4f4d9b1013c5f4d708ce9aa9e",
      "contractAddress": null,
      "daFootprintGasScalar": "0x190",
      "l1BaseFeeScalar": "0x2af8",
      "l1BlobBaseFee": "0x1",
      "l1BlobBaseFeeScalar": "0x109618",
      "l1Fee": "0x12e",
      "l1GasPrice": "0xb",
      "l1GasUsed": "0x640"
    },
    {
      "status": "0x1",
      "cumulativeGasUsed": "0x3d222",
      "logs": [
        {
          "address": "0xd10f51695bc3318759a75335efe61e32727330b6",
          "topics": [
            "0xddf252ad1be2c89b69c2b068fc378daa952ba7f163c4a11628f55a4df523b3ef",
            "0x0000000000000000000000000000000000000000000000000000000000000000",
            "0x000000000000000000000000656fe1c1a9c92560d9183c42b8e6882c9e440b50"
          ],
          "data": "0x000000000000000000000000000000000000000000000000000000003b9aca00",
          "blockHash": "0x5f954d7f2dd08b986468de1d2134f4702adfdb20e39dfeb2efd3eea8bdd463ae",
          "blockNumber": "0x1d97c48",
          "blockTimestamp": "0x6957fb70",
          "transactionHash": "0xef54cccfb51c9894ec4332acb51e4ce09fdd2c3193ec3b829912d9dc895f0987",
          "transactionIndex": "0x4",
          "logIndex": "0x3",
          "removed": false
        }
      ],
      "logsBloom": "0x00000000000000000000000000000000000000000000000040000000000000000000000400000000000000000000000000000000000000000000000000000000000000000000000000000008000000020000000000000000000000000000000000000000020000000000000000400800000000000000000000000010000000000000000000000000000000000000000000000000000000000010000000000000000000000000000000000000000000000000000000000000000000000000000000000002000000000000000000000000000000000000000000000000000020000000000000000000000080000000000000000000000000000000000000000000",
      "type": "0x2",
      "transactionHash": "0xef54cccfb51c9894ec4332acb51e4ce09fdd2c3193ec3b829912d9dc895f0987",
      "transactionIndex": "0x4",
      "blockHash": "0x5f954d7f2dd08b986468de1d2134f4702adfdb20e39dfeb2efd3eea8bdd463ae",
      "blockNumber": "0x1d97c48",
      "gasUsed": "0xc769",
      "effectiveGasPrice": "0xfe",
      "blobGasUsed": "0x9c40",
      "from": "0x656fe1c1a9c92560d9183c42b8e6882c9e440b50",
      "to": "0xd10f51695bc3318759a75335efe61e32727330b6",
      "contractAddress": null,
      "daFootprintGasScalar": "0x190",
      "l1BaseFeeScalar": "0x2af8",
      "l1BlobBaseFee": "0x1",
      "l1BlobBaseFeeScalar": "0x109618",
      "l1Fee": "0x12e",
      "l1GasPrice": "0xb",
      "l1GasUsed": "0x640"
    },
    {
      "status": "0x1",
      "cumulativeGasUsed": "0x499a3",
      "logs": [
        {
          "address": "0x5e8b38dc8e00c2332ac253600975502cf9fbf36a",
          "topics": [
            "0xddf252ad1be2c89b69c2b068fc378daa952ba7f163c4a11628f55a4df523b3ef",
            "0x0000000000000000000000000000000000000000000000000000000000000000",
            "0x000000000000000000000000656fe1c1a9c92560d9183c42b8e6882c9e440b50"
          ],
          "data": "0x000000000000000000000000000000000000000000000000000001d1a94a2000",
          "blockHash": "0x5f954d7f2dd08b986468de1d2134f4702adfdb20e39dfeb2efd3eea8bdd463ae",
          "blockNumber": "0x1d97c48",
          "blockTimestamp": "0x6957fb70",
          "transactionHash": "0xe32aeba1cacb49e2630bdb9f1e13dfb0699cc8925299ea1ac64d87993de523a9",
          "transactionIndex": "0x5",
          "logIndex": "0x4",
          "removed": false
        }
      ],
      "logsBloom": "0x00000000000000000000000000000000000000000000000000000000000000000000000400000000000000000000000000000000000000000000000000000000000000000000000000000008000000020000000008000000000000000000000000000000020000000000000000400800000000000000000000000010000000000000000000000000000000000000000000000000000000000000000000000000000000000000000000000000000000000000000000000000000000000000000000000002000000000000000000000000000000000000000000000000000020000002000000000000000000080000000000000000000000000000000000000000",
      "type": "0x2",
      "transactionHash": "0xe32aeba1cacb49e2630bdb9f1e13dfb0699cc8925299ea1ac64d87993de523a9",
      "transactionIndex": "0x5",
      "blockHash": "0x5f954d7f2dd08b986468de1d2134f4702adfdb20e39dfeb2efd3eea8bdd463ae",
      "blockNumber": "0x1d97c48",
      "gasUsed": "0xc781",
      "effectiveGasPrice": "0xfe",
      "blobGasUsed": "0x9c40",
      "from": "0x656fe1c1a9c92560d9183c42b8e6882c9e440b50",
      "to": "0x5e8b38dc8e00c2332ac253600975502cf9fbf36a",
      "contractAddress": null,
      "daFootprintGasScalar": "0x190",
      "l1BaseFeeScalar": "0x2af8",
      "l1BlobBaseFee": "0x1",
      "l1BlobBaseFeeScalar": "0x109618",
      "l1Fee": "0x12e",
      "l1GasPrice": "0xb",
      "l1GasUsed": "0x640"
    },
    {
      "status": "0x1",
      "cumulativeGasUsed": "0x56118",
      "logs": [
        {
          "address": "0xdfae672ad0e094ee64e370da99b1e37ab58aac4f",
          "topics": [
            "0xddf252ad1be2c89b69c2b068fc378daa952ba7f163c4a11628f55a4df523b3ef",
            "0x0000000000000000000000000000000000000000000000000000000000000000",
            "0x000000000000000000000000656fe1c1a9c92560d9183c42b8e6882c9e440b50"
          ],
          "data": "0x00000000000000000000000000000000000000000000000000000001a13b8600",
          "blockHash": "0x5f954d7f2dd08b986468de1d2134f4702adfdb20e39dfeb2efd3eea8bdd463ae",
          "blockNumber": "0x1d97c48",
          "blockTimestamp": "0x6957fb70",
          "transactionHash": "0x8bbfc77c0ef2e7fab44ad6ae20ee1d5c9c124d686c476a3e3b589fee15c52808",
          "transactionIndex": "0x6",
          "logIndex": "0x5",
          "removed": false
        }
      ],
      "logsBloom": "0x00000000000000000000000000020000000000000000000000000000000000000000000400000000000000000000000000000000000000000000000000000000000000000000000000000008000000020000000000000000000000000000000000000000020000000000000000400800000000000000000000000010000000000000000000000000000000000000000000000000000000000000000000000000000000000000000000000000000020000000000000000000000000000000000000000002000000400000000000000000000000000000000000000000000020000000000000000000000000000000000000000000000000000000000000000000",
      "type": "0x2",
      "transactionHash": "0x8bbfc77c0ef2e7fab44ad6ae20ee1d5c9c124d686c476a3e3b589fee15c52808",
      "transactionIndex": "0x6",
      "blockHash": "0x5f954d7f2dd08b986468de1d2134f4702adfdb20e39dfeb2efd3eea8bdd463ae",
      "blockNumber": "0x1d97c48",
      "gasUsed": "0xc775",
      "effectiveGasPrice": "0xfe",
      "blobGasUsed": "0x9c40",
      "from": "0x656fe1c1a9c92560d9183c42b8e6882c9e440b50",
      "to": "0xdfae672ad0e094ee64e370da99b1e37ab58aac4f",
      "contractAddress": null,
      "daFootprintGasScalar": "0x190",
      "l1BaseFeeScalar": "0x2af8",
      "l1BlobBaseFee": "0x1",
      "l1BlobBaseFeeScalar": "0x109618",
      "l1Fee": "0x12e",
      "l1GasPrice": "0xb",
      "l1GasUsed": "0x640"
    }
  ],
  "libraries": [],
  "pending": [],
  "returns": {},
  "timestamp": 1767373681960,
  "chain": 4202,
  "commit": "54f2c0b"
}