{
  "transactions": [
    {
      "hash": "0x4341624bb6179d99a7a2c71d4b1af7421e845e964a6c438645100e2aacaf7c1c",
      "transactionType": "CALL",
      "contractName": null,
      "contractAddress": "0x6f1330f207ab5e2a52c550af308ba28e3c517311",
      "function": "setSigner(address,bool)",
      "arguments": [
        "0x656fE1C1a9c92560d9183C42B8E6882c9e440b50",
        "true"
      ],
      "transaction": {
        "from": "0x722550bb8ec6416522afe9eaf446f0de3262f701",
        "to": "0x6f1330f207ab5e2a52c550af308ba28e3c517311",
        "gas": "0x1016e",
        "value": "0x0",
        "input": "0x31cb6105000000000000000000000000656fe1c1a9c92560d9183c42b8e6882c9e440b500000000000000000000000000000000000000000000000000000000000000001",
        "nonce": "0x4",
        "chainId": "0x106a"
      },
      "additionalContracts": [],
      "isFixedGasLimit": false
    }
  ],
  "receipts": [
    {
      "status": "0x1",
      "cumulativeGasUsed": "0x16eae",
      "logs": [
        {
          "address": "0x6f1330f207ab5e2a52c550af308ba28e3c517311",
          "topics": [
            "0xfcaa24b1276bfa7dbf77797c0a984b9df924acbeaabd48cd2f1b0eca379b78fa",
            "0x000000000000000000000000656fe1c1a9c92560d9183c42b8e6882c9e440b50"
          ],
          "data": "0x0000000000000000000000000000000000000000000000000000000000000001",
          "blockHash": "0x9441693fca92d0c489c36cf3c1bdfdbf28b21fa213919093d18b93d18f9b1613",
          "blockNumber": "0x1db4f64",
          "blockTimestamp": "0x695ba1a8",
          "transactionHash": "0x4341624bb6179d99a7a2c71d4b1af7421e845e964a6c438645100e2aacaf7c1c",
          "transactionIndex": "0x1",
          "logIndex": "0x0",
          "removed": false
        }
      ],
      "logsBloom": "0x00000000000000000000000000000000000000000000000000000000000000000000000400000000000000000000000000000000000000000000000000000000000000000000000000000000000000020000000000000000000000000000000000000000000000000000000000400000000020000004000000000000000000000000000000000000000000000000001000000000000000000000000000000004000000000000000000000000000000000000000000000000040000000000000000000000000000000000000000000000000000000000000000000000000000000000000000000000000000000000000000000000000000000000000000200000",
      "type": "0x2",
      "transactionHash": "0x4341624bb6179d99a7a2c71d4b1af7421e845e964a6c438645100e2aacaf7c1c",
      "transactionIndex": "0x1",
      "blockHash": "0x9441693fca92d0c489c36cf3c1bdfdbf28b21fa213919093d18b93d18f9b1613",
      "blockNumber": "0x1db4f64",
      "gasUsed": "0xba60",
      "effectiveGasPrice": "0xfe",
      "blobGasUsed": "0x9c40",
      "from": "0x722550bb8ec6416522afe9eaf446f0de3262f701",
      "to": "0x6f1330f207ab5e2a52c550af308ba28e3c517311",
      "contractAddress": null,
      "daFootprintGasScalar": "0x190",
      "l1BaseFeeScalar": "0x2af8",
      "l1BlobBaseFee": "0x1",
      "l1BlobBaseFeeScalar": "0x109618",
      "l1Fee": "0x10b",
      "l1GasPrice": "0x9",
      "l1GasUsed": "0x640"
    }
  ],
  "libraries": [],
  "pending": [],
  "returns": {},
  "timestamp": 1767612841,
  "chain": 4202,
  "commit": "fe15b09"
}