{
  "transactions": [
    {
      "hash": "0xb97998283608ce392083bbc1aa8f3633d9a4d9b70979afb1acb3bc2dfb4ebf1f",
      "transactionType": "CALL",
      "contractName": null,
      "contractAddress": "0x8edcbebe6595ccaefe2ad6004b9072fb6316892b",
      "function": "setSigner(address,bool)",
      "arguments": [
        "0x722550Bb8Ec6416522AfE9EAf446F0DE3262f701",
        "true"
      ],
      "transaction": {
        "from": "0x656fe1c1a9c92560d9183c42b8e6882c9e440b50",
        "to": "0x8edcbebe6595ccaefe2ad6004b9072fb6316892b",
        "gas": "0x1016e",
        "value": "0x0",
        "input": "0x31cb6105000000000000000000000000722550bb8ec6416522afe9eaf446f0de3262f7010000000000000000000000000000000000000000000000000000000000000001",
        "nonce": "0x5d",
        "chainId": "0x106a"
      },
      "additionalContracts": [],
      "isFixedGasLimit": false
    }
  ],
  "receipts": [
    {
      "status": "0x1",
      "cumulativeGasUsed": "0x16eae",
      "logs": [
        {
          "address": "0x8edcbebe6595ccaefe2ad6004b9072fb6316892b",
          "topics": [
            "0xfcaa24b1276bfa7dbf77797c0a984b9df924acbeaabd48cd2f1b0eca379b78fa",
            "0x000000000000000000000000722550bb8ec6416522afe9eaf446f0de3262f701"
          ],
          "data": "0x0000000000000000000000000000000000000000000000000000000000000001",
          "blockHash": "0x7a8276966ff56f3bce70b38557fc52ac312c0491d59f62dff69a91b5ccea1361",
          "blockNumber": "0x1d9eb01",
          "blockTimestamp": "0x6958d8e2",
          "transactionHash": "0xb97998283608ce392083bbc1aa8f3633d9a4d9b70979afb1acb3bc2dfb4ebf1f",
          "transactionIndex": "0x1",
          "logIndex": "0x0",
          "removed": false
        }
      ],
      "logsBloom": "0x00000000040000000000000000000000001000000000000000000008000000000000000000000000000000000000010000000000000000000000000000000000000000000000000000000000000000000000000000000000000000000000000000000000000002000000000000000000000020000000000000000000000000000000000000000000000000000000000000000000000000000000000000000004000000000000000000000000000000000000000000000000040000000000000000000000000000000000000000000000000000000000000000000000000000000000000000000000000000000000000000000000000000000000000000000100",
      "type": "0x2",
      "transactionHash": "0xb97998283608ce392083bbc1aa8f3633d9a4d9b70979afb1acb3bc2dfb4ebf1f",
      "transactionIndex": "0x1",
      "blockHash": "0x7a8276966ff56f3bce70b38557fc52ac312c0491d59f62dff69a91b5ccea1361",
      "blockNumber": "0x1d9eb01",
      "gasUsed": "0xba60",
      "effectiveGasPrice": "0xfe",
      "blobGasUsed": "0x9c40",
      "from": "0x656fe1c1a9c92560d9183c42b8e6882c9e440b50",
      "to": "0x8edcbebe6595ccaefe2ad6004b9072fb6316892b",
      "contractAddress": null,
      "daFootprintGasScalar": "0x190",
      "l1BaseFeeScalar": "0x2af8",
      "l1BlobBaseFee": "0x1",
      "l1BlobBaseFeeScalar": "0x109618",
      "l1Fee": "0xf9",
      "l1GasPrice": "0x8",
      "l1GasUsed": "0x640"
    }
  ],
  "libraries": [],
  "pending": [],
  "returns": {},
  "timestamp": 1767430370561,
  "chain": 4202,
  "commit": "c0925de"
}