{
  "transactions": [
    {
      "hash": "0x3634d99f4e563cd8325ee069a637e942e17816c78361cbade3e76f2cf31ca383",
      "transactionType": "CALL",
      "contractName": null,
      "contractAddress": "0xfbba03a7ec3f6ae73bd9ef6c4811b6ef0726d565",
      "function": "setSigner(address,bool)",
      "arguments": [
        "0x722550Bb8Ec6416522AfE9EAf446F0DE3262f701",
        "true"
      ],
      "transaction": {
        "from": "0x656fe1c1a9c92560d9183c42b8e6882c9e440b50",
        "to": "0xfbba03a7ec3f6ae73bd9ef6c4811b6ef0726d565",
        "gas": "0x1016e",
        "value": "0x0",
        "input": "0x31cb6105000000000000000000000000722550bb8ec6416522afe9eaf446f0de3262f7010000000000000000000000000000000000000000000000000000000000000001",
        "nonce": "0x67",
        "chainId": "0x106a"
      },
      "additionalContracts": [],
      "isFixedGasLimit": false
    }
  ],
  "receipts": [
    {
      "status": "0x1",
      "cumulativeGasUsed": "0x16eae",
      "logs": [
        {
          "address": "0xfbba03a7ec3f6ae73bd9ef6c4811b6ef0726d565",
          "topics": [
            "0xfcaa24b1276bfa7dbf77797c0a984b9df924acbeaabd48cd2f1b0eca379b78fa",
            "0x000000000000000000000000722550bb8ec6416522afe9eaf446f0de3262f701"
          ],
          "data": "0x0000000000000000000000000000000000000000000000000000000000000001",
          "blockHash": "0x0b827968851c57f5d1ecaf6e33c5e21e17495db1a2373f49c2758c0b4c2b4caf",
          "blockNumber": "0x1da0a44",
          "blockTimestamp": "0x69591768",
          "transactionHash": "0x3634d99f4e563cd8325ee069a637e942e17816c78361cbade3e76f2cf31ca383",
          "transactionIndex": "0x1",
          "logIndex": "0x0",
          "removed": false
        }
      ],
      "logsBloom": "0x00000000040000000000000000000000000000000000000000000000000000000000000000000000000000000000010000000000000000000000000000000000000000000000000000000000000000000000000000000000000000000200000000000000000000000000400000000000000020000000000000000000000000000000000000000000000000000000000000000000000000000000000000000004000000000000000000000000000000000000000000000000040000000000000000000000000000000000000000000000000000000000000000000000000000000000000000000000000000400000000000000000000000000000000000000100",
      "type": "0x2",
      "transactionHash": "0x3634d99f4e563cd8325ee069a637e942e17816c78361cbade3e76f2cf31ca383",
      "transactionIndex": "0x1",
      "blockHash": "0x0b827968851c57f5d1ecaf6e33c5e21e17495db1a2373f49c2758c0b4c2b4caf",
      "blockNumber": "0x1da0a44",
      "gasUsed": "0xba60",
      "effectiveGasPrice": "0xfe",
      "blobGasUsed": "0x9c40",
      "from": "0x656fe1c1a9c92560d9183c42b8e6882c9e440b50",
      "to": "0xfbba03a7ec3f6ae73bd9ef6c4811b6ef0726d565",
      "contractAddress": null,
      "daFootprintGasScalar": "0x190",
      "l1BaseFeeScalar": "0x2af8",
      "l1BlobBaseFee": "0x1",
      "l1BlobBaseFeeScalar": "0x109618",
      "l1Fee": "0x10b",
      "l1GasPrice": "0x9",
      "l1GasUsed": "0x640"
    }
  ],
  "libraries": [],
  "pending": [],
  "returns": {},
  "timestamp": 1767446376655,
  "chain": 4202,
  "commit": "8bf7b72"
}