{
  "transactions": [
    {
      "hash": "0x1f70dbfde6713b433f99368395ceb67872ea4e1ee41bf073bbfbdb2bfbfba4d2",
      "transactionType": "CALL",
      "contractName": null,
      "contractAddress": "0x1bf189d6784251e815f0b630bd20ef7e59d83b27",
      "function": "setSigner(address,bool)",
      "arguments": [
        "0x722550Bb8Ec6416522AfE9EAf446F0DE3262f701",
        "true"
      ],
      "transaction": {
        "from": "0x656fe1c1a9c92560d9183c42b8e6882c9e440b50",
        "to": "0x1bf189d6784251e815f0b630bd20ef7e59d83b27",
        "gas": "0x1016e",
        "value": "0x0",
        "input": "0x31cb6105000000000000000000000000722550bb8ec6416522afe9eaf446f0de3262f7010000000000000000000000000000000000000000000000000000000000000001",
        "nonce": "0x6b",
        "chainId": "0x106a"
      },
      "additionalContracts": [],
      "isFixedGasLimit": false
    }
  ],
  "receipts": [
    {
      "status": "0x1",
      "cumulativeGasUsed": "0x16eae",
      "logs": [
        {
          "address": "0x1bf189d6784251e815f0b630bd20ef7e59d83b27",
          "topics": [
            "0xfcaa24b1276bfa7dbf77797c0a984b9df924acbeaabd48cd2f1b0eca379b78fa",
            "0x000000000000000000000000722550bb8ec6416522afe9eaf446f0de3262f701"
          ],
          "data": "0x0000000000000000000000000000000000000000000000000000000000000001",
          "blockHash": "0xe6ebb67fa7236a0f4053e4507ce599969a0c918fe3e945b08317ddaf838b75da",
          "blockNumber": "0x1da61d7",
          "blockTimestamp": "0x6959c68e",
          "transactionHash": "0x1f70dbfde6713b433f99368395ceb67872ea4e1ee41bf073bbfbdb2bfbfba4d2",
          "transactionIndex": "0x1",
          "logIndex": "0x0",
          "removed": false
        }
      ],
      "logsBloom": "0x00000000040000000000000000000000000000000000000000000000000000000000000000000000000000000000010000000000000000000000000000000000000000000000000000000000000000000000000020000000000000000000000000000000000000000000000000000000000020000000000000000000000000000000000000000000000000000000000000000000000000000000000000000004000000000000000000000000000000000000000000000000040000000000000000000000000000000000000000000000000200000000000000000000000000080000000000000000000000000000000000000000000000000000000000000100",
      "type": "0x2",
      "transactionHash": "0x1f70dbfde6713b433f99368395ceb67872ea4e1ee41bf073bbfbdb2bfbfba4d2",
      "transactionIndex": "0x1",
      "blockHash": "0xe6ebb67fa7236a0f4053e4507ce599969a0c918fe3e945b08317ddaf838b75da",
      "blockNumber": "0x1da61d7",
      "gasUsed": "0xba60",
      "effectiveGasPrice": "0xfe",
      "blobGasUsed": "0x9c40",
      "from": "0x656fe1c1a9c92560d9183c42b8e6882c9e440b50",
      "to": "0x1bf189d6784251e815f0b630bd20ef7e59d83b27",
      "contractAddress": null,
      "daFootprintGasScalar": "0x190",
      "l1BaseFeeScalar": "0x2af8",
      "l1BlobBaseFee": "0x1",
      "l1BlobBaseFeeScalar": "0x109618",
      "l1Fee": "0xf9",
      "l1GasPrice": "0x8",
      "l1GasUsed": "0x640"
    }
  ],
  "libraries": [],
  "pending": [],
  "returns": {},
  "timestamp": 1767491217228,
  "chain": 4202,
  "commit": "5ae8d2a"
}