{
  "transactions": [
    {
      "hash": "0x3e3b01f060c4d7f049967d5d158d98873a74534039d3497746bd4256a2f247d2",
      "transactionType": "CALL",
      "contractName": null,
      "contractAddress": "0xad995c290eea192fc8585179ba9d576eae34fe8b",
      "function": "setSigner(address,bool)",
      "arguments": [
        "0x722550Bb8Ec6416522AfE9EAf446F0DE3262f701",
        "true"
      ],
      "transaction": {
        "from": "0x656fe1c1a9c92560d9183c42b8e6882c9e440b50",
        "to": "0xad995c290eea192fc8585179ba9d576eae34fe8b",
        "gas": "0x1016e",
        "value": "0x0",
        "input": "0x31cb6105000000000000000000000000722550bb8ec6416522afe9eaf446f0de3262f7010000000000000000000000000000000000000000000000000000000000000001",
        "nonce": "0x76",
        "chainId": "0x106a"
      },
      "additionalContracts": [],
      "isFixedGasLimit": false
    }
  ],
  "receipts": [
    {
      "status": "0x1",
      "cumulativeGasUsed": "0x16ea2",
      "logs": [
        {
          "address": "0xad995c290eea192fc8585179ba9d576eae34fe8b",
          "topics": [
            "0xfcaa24b1276bfa7dbf77797c0a984b9df924acbeaabd48cd2f1b0eca379b78fa",
            "0x000000000000000000000000722550bb8ec6416522afe9eaf446f0de3262f701"
          ],
          "data": "0x0000000000000000000000000000000000000000000000000000000000000001",
          "blockHash": "0xd54d5fb96fec49ce77a9bb78d2f8f691792eecf3d365e01dd85d0cd058c76609",
          "blockNumber": "0x1da9e5b",
          "blockTimestamp": "0x695a3f96",
          "transactionHash": "0x3e3b01f060c4d7f049967d5d158d98873a74534039d3497746bd4256a2f247d2",
          "transactionIndex": "0x1",
          "logIndex": "0x0",
          "removed": false
        }
      ],
      "logsBloom": "0x00000000040000000000000000000000000000000000000000000000000000000000000000000000000000000400010000000000000000000000000000000000000000000000000000000000000000000000000000000000000000000000000000000000000000000000000000000000000020000000000000000000000000000000000000000000000000000000000000000000000000000000000000000004000000000000000000000000000000000000000000000000040000000000000000000000000000000000400000000000000000000000000000000000000000000000000000200000000000000000000000000000000000000000000000000100",
      "type": "0x2",
      "transactionHash": "0x3e3b01f060c4d7f049967d5d158d98873a74534039d3497746bd4256a2f247d2",
      "transactionIndex": "0x1",
      "blockHash": "0xd54d5fb96fec49ce77a9bb78d2f8f691792eecf3d365e01dd85d0cd058c76609",
      "blockNumber": "0x1da9e5b",
      "gasUsed": "0xba60",
      "effectiveGasPrice": "0xfe",
      "blobGasUsed": "0x9c40",
      "from": "0x656fe1c1a9c92560d9183c42b8e6882c9e440b50",
      "to": "0xad995c290eea192fc8585179ba9d576eae34fe8b",
      "contractAddress": null,
      "daFootprintGasScalar": "0x190",
      "l1BaseFeeScalar": "0x2af8",
      "l1BlobBaseFee": "0x1",
      "l1BlobBaseFeeScalar": "0x109618",
      "l1Fee": "0xf9",
      "l1GasPrice": "0x8",
      "l1GasUsed": "0x640"
    }
  ],
  "libraries": [],
  "pending": [],
  "returns": {},
  "timestamp": 1767522200807,
  "chain": 4202,
  "commit": "eee9003"
}