{
  "transactions": [
    {
      "hash": "0x967eed394d7fc4fa9a07e4e4e090d831654f967fae5b62e0bd498b88fb08b37e",
      "transactionType": "CREATE",
      "contractName": "Paymaster",
      "contractAddress": "0xfbba03a7ec3f6ae73bd9ef6c4811b6ef0726d565",
      "function": null,
      "arguments": [
        "0x0000000071727De22E5E9d8BAf0edAc6f37da032",
        "0xCC0Be72a95d2f5b0071b3E2946f1D3D70e440C36"
      ],
      "transaction": {
        "from": "0x656fe1c1a9c92560d9183c42b8e6882c9e440b50",
        "gas": "0x2267f2",
        "value": "0x0",
        "input": "0x60a03461020257601f611ebf38819003918201601f19168301916001600160401b0383118484101761020657808492604094855283398101031261020257610052602061004b8361021a565b920161021a565b33156101ef575f8054336001600160a01b0319821681178355604051949290916001600160a01b0316907f8be0079c531659141344cd1fd0a4f28419497f9722a3daafe3b4186f6b6457e09080a360017f9b779b17422d0df92223018b32b4d1fa46e071723d6817e2486d003becc55f00556001600160a01b03169081156101e0576001600160a01b031691821561019e57506080528060018060a01b03196001541617600155335f52600460205260405f20600160ff19825416179055604051905f7f482b97c53e48ffa324a976e2738053e9aff6eee04d8aac63b10e19411d869b828180a3600181527ffcaa24b1276bfa7dbf77797c0a984b9df924acbeaabd48cd2f1b0eca379b78fa60203392a2604051611c90908161022f82396080518181816104e8015281816105bb015281816106a20152818161072c01528181610beb01526110200152f35b62461bcd60e51b815260206004820152601b60248201527f5061796d61737465723a20696e76616c696420726567697374727900000000006044820152606490fd5b632039d3c960e01b5f5260045ffd5b631e4fbdf760e01b5f525f60045260245ffd5b5f80fd5b634e487b7160e01b5f52604160045260245ffd5b51906001600160a01b03821682036102025756fe6080604052600436101561001a575b3615610018575f80fd5b005b5f5f3560e01c80630fd659ea1461118f5780631cead9a71461075b578063240028e814610df457806331cb61051461110a5780633f4ba83a1461109e57806349045e1614610f8057806352b7512c14610fe15780635c975abb14610fbd5780635d2b6a4e14610f805780636382d9ad14610e3157806368c4ac2614610df45780636d58d2e814610dd85780636e25128e14610dbb578063715018a614610d64578063796d437114610d485780637c627b2114610b825780638456cb5914610b225780638b28ab1e14610ad05780638c7ac7461461094b5780638da5cb5b146109245780639ba372c214610793578063a3daed991461075b578063b0d691fe14610717578063c399ec8814610677578063c7d7630814610594578063d0e30db0146104d1578063df61515a146104a9578063e1a452181461048c578063e3bbb4f11461046c578063e798646614610335578063eb8a9cfe1461027b578063f2fde38b146101f5578063fb85687a146101cc5763feb617241461019b575061000e565b346101c95760203660031901126101c95760ff60406020926004358152600584522054166040519015158152f35b80fd5b50346101c957806003193601126101c9576001546040516001600160a01b039091168152602090f35b50346101c95760203660031901126101c95761020f6111ec565b610217611a6f565b6001600160a01b031680156102675781546001600160a01b03198116821783556001600160a01b03167f8be0079c531659141344cd1fd0a4f28419497f9722a3daafe3b4186f6b6457e08380a380f35b631e4fbdf760e01b82526004829052602482fd5b50346101c95760203660031901126101c9576102956111ec565b61029d611a6f565b6001600160a01b031680156102f057600180546001600160a01b0319811683179091556001600160a01b03167f482b97c53e48ffa324a976e2738053e9aff6eee04d8aac63b10e19411d869b828380a380f35b60405162461bcd60e51b815260206004820152601b60248201527f5061796d61737465723a20696e76616c696420726567697374727900000000006044820152606490fd5b50346101c95761034436611216565b9061034d611a6f565b6001600160a01b031690811561045d57806103b3575b60207fbbe72b7d9dcb594ee398a4a617885aba53d833e2aad601c813ce9df99fdeb49b91838552600382526103a781604087209060ff801983541691151516179055565b6040519015158152a280f35b60015460405163680949e560e11b8152600481018490529190602090839060249082906001600160a01b03165afa9081156104525761041d6020927fbbe72b7d9dcb594ee398a4a617885aba53d833e2aad601c813ce9df99fdeb49b948791610425575b50611991565b915050610363565b6104459150843d861161044b575b61043d8183611310565b810190611979565b5f610417565b503d610433565b6040513d86823e3d90fd5b63c1ab6dc160e01b8352600483fd5b50346101c957806003193601126101c957602060405164e8d4a510008152f35b50346101c957806003193601126101c95760206040516127108152f35b50346101c957806003193601126101c95760408051620186a0815264e8d4a510006020820152f35b50806003193601126101c9576104e5611a6f565b807f00000000000000000000000000000000000000000000000000000000000000006001600160a01b0316803b1561059157816024916040519283809263b760faf960e01b825230600483015234905af1801561058657610571575b506040513481527f2da466a7b24304f47e87fa2e1e5a81b9831ce54fec19055ce277ca2f39ba42c460203092a280f35b8161057b91611310565b6101c957805f610541565b6040513d84823e3d90fd5b50fd5b5034610673576040366003190112610673576105ae6111ec565b6024356105b9611a6f565b7f00000000000000000000000000000000000000000000000000000000000000006001600160a01b031691823b15610673575f809160446040518094819363040b850f60e31b835260018060a01b0316978860048401528760248401525af1801561066857610652575b5060207f7084f5476618d8e60b11ef0d7d3f06914655adb8793e28ff7f018d4c76d505d591604051908152a280f35b61065f9193505f90611310565b5f916020610623565b6040513d5f823e3d90fd5b5f80fd5b34610673575f366003190112610673576040516370a0823160e01b81523060048201526020816024817f00000000000000000000000000000000000000000000000000000000000000006001600160a01b03165afa8015610668575f906106e4575b602090604051908152f35b506020813d60201161070f575b816106fe60209383611310565b8101031261067357602090516106d9565b3d91506106f1565b34610673575f366003190112610673576040517f00000000000000000000000000000000000000000000000000000000000000006001600160a01b03168152602090f35b34610673576020366003190112610673576001600160a01b0361077c6111ec565b165f526002602052602060405f2054604051908152f35b34610673576060366003190112610673576107ac6111ec565b6044356001600160a01b0381169160243590838303610673576107cd611a6f565b60027f9b779b17422d0df92223018b32b4d1fa46e071723d6817e2486d003becc55f0054146109155760027f9b779b17422d0df92223018b32b4d1fa46e071723d6817e2486d003becc55f0055610825841515611910565b6001600160a01b03165f8181526002602052604090205490929082116108d057825f52600260205260405f209182548181039081116108bc578160209361088f927f87044da2612407bc001bb0985725dcc651a0dc71eaabfd1d7e8617ca85a8c19c965586611ab2565b604051908152a360017f9b779b17422d0df92223018b32b4d1fa46e071723d6817e2486d003becc55f0055005b634e487b7160e01b5f52601160045260245ffd5b60405162461bcd60e51b815260206004820152601c60248201527f5061796d61737465723a20696e73756666696369656e742066656573000000006044820152606490fd5b633ee5aeb560e01b5f5260045ffd5b34610673575f366003190112610673575f546040516001600160a01b039091168152602090f35b346106735760203660031901126106735760043567ffffffffffffffff811161067357366023820112156106735780600401359067ffffffffffffffff8211610673576024810190602436918460051b010111610673576109aa611a6f565b5f5b8281106109b557005b6001600160a01b036109d06109cb838686611969565b611398565b1615610ac1576001546001600160a01b03169060206109f36109cb838787611969565b60405163680949e560e11b81526001600160a01b03909116600482015292839060249082905afa91821561066857600192610a34915f91610aa35750611991565b818060a01b03610a486109cb838787611969565b165f52600360205260405f208260ff19825416179055818060a01b03610a726109cb838787611969565b167fbbe72b7d9dcb594ee398a4a617885aba53d833e2aad601c813ce9df99fdeb49b6020604051858152a2016109ac565b610abb915060203d811161044b5761043d8183611310565b86610417565b63c1ab6dc160e01b5f5260045ffd5b34610673576040366003190112610673576020610b1a610aee6111ec565b6001600160a01b0381165f908152600384526040902054610b119060ff16611245565b602435906119dc565b604051908152f35b34610673575f36600319011261067357610b3a611a6f565b610b42611a95565b5f805460ff60a01b1916600160a01b1790556040513381527f62e78cea01bee320cd4e420270b5ea74000d11b0c9f74754ebdbfc544b05a25890602090a1005b34610673576080366003190112610673576004356003811015610673576024359067ffffffffffffffff8211610673573660238301121561067357816004013567ffffffffffffffff8111610673578201903660248301116106735760643591606090610c19337f00000000000000000000000000000000000000000000000000000000000000006001600160a01b031614611291565b8490031261067357610c2d60248401611202565b916064610c3c60448601611202565b6001600160a01b0394851695941693619c4080840293929091013591908304036108bc57610c77610c7160029360443561195c565b866119dc565b9080821015610d405750915b03610c8a57005b6040516323b872dd60e01b5f5282600452306024528160445260205f60648180885af19060015f5114821615610d1f575b6040525f60605215610d0c5760207fc9991e76367ebf3387530c533ae59ea7535aa764f043134baaf8b3dd3ad7062691845f526002825260405f20610d0182825461195c565b9055604051908152a3005b82635274afe760e01b5f5260045260245ffd5b906001811516610d3757843b15153d15161690610cbb565b503d5f823e3d90fd5b905091610c83565b34610673575f366003190112610673576020604051619c408152f35b34610673575f36600319011261067357610d7c611a6f565b5f80546001600160a01b0319811682556001600160a01b03167f8be0079c531659141344cd1fd0a4f28419497f9722a3daafe3b4186f6b6457e08280a3005b34610673575f366003190112610673576020604051620186a08152f35b34610673575f3660031901126106735760206040516101f48152f35b34610673576020366003190112610673576001600160a01b03610e156111ec565b165f526003602052602060ff60405f2054166040519015158152f35b3461067357604036600319011261067357610e4a6111ec565b602435906001600160a01b03821680830361067357610e7290610e6b611a6f565b1515611910565b6001600160a01b031680610f0357505f8080809347905af13d15610efe573d610e9a81611346565b90610ea86040519283611310565b81525f60203d92013e5b15610eb957005b60405162461bcd60e51b815260206004820152601e60248201527f5061796d61737465723a20455448207472616e73666572206661696c656400006044820152606490fd5b610eb2565b6040516370a0823160e01b81523060048201529091602082602481865afa908115610668575f91610f4a575b610f3a925083611ab2565b5f90815260026020526040812055005b90506020823d602011610f78575b81610f6560209383611310565b8101031261067357610f3a915190610f2f565b3d9150610f58565b34610673576020366003190112610673576001600160a01b03610fa16111ec565b165f526004602052602060ff60405f2054166040519015158152f35b34610673575f36600319011261067357602060ff5f5460a01c166040519015158152f35b346106735760603660031901126106735760043567ffffffffffffffff8111610673576101206003198236030112610673576060906110669061104e337f00000000000000000000000000000000000000000000000000000000000000006001600160a01b031614611291565b611056611a95565b60443590602435906004016113ac565b91906020604051938492604084528051928391826040870152018585015e5f8383018501526020830152601f01601f19168101030190f35b34610673575f366003190112610673576110b6611a6f565b5f5460ff8160a01c16156110fb5760ff60a01b19165f556040513381527f5db9ee0a495bf2e6ff9c91a7834c1ba4fdd244a5e8aa4e537bd38aeae4b073aa90602090a1005b638dfc202b60e01b5f5260045ffd5b346106735761111836611216565b90611121611a6f565b6001600160a01b03169081156111805760207ffcaa24b1276bfa7dbf77797c0a984b9df924acbeaabd48cd2f1b0eca379b78fa91835f52600482526111758160405f209060ff801983541691151516179055565b6040519015158152a2005b632057875960e21b5f5260045ffd5b34610673576060366003190112610673576111a86111ec565b602435906044359160018060a01b0382165f5260036020526111d060ff60405f205416611245565b8281029281840414901517156108bc57602091610b1a916119dc565b600435906001600160a01b038216820361067357565b35906001600160a01b038216820361067357565b6040906003190112610673576004356001600160a01b0381168103610673579060243580151581036106735790565b1561124c57565b60405162461bcd60e51b815260206004820152601e60248201527f5061796d61737465723a20746f6b656e206e6f7420737570706f7274656400006044820152606490fd5b1561129857565b60405162461bcd60e51b815260206004820152601960248201527f5061796d61737465723a206e6f7420456e747279506f696e74000000000000006044820152606490fd5b903590601e1981360301821215610673570180359067ffffffffffffffff82116106735760200191813603831361067357565b90601f8019910116810190811067ffffffffffffffff82111761133257604052565b634e487b7160e01b5f52604160045260245ffd5b67ffffffffffffffff811161133257601f01601f191660200190565b92919261136e82611346565b9161137c6040519384611310565b829481845281830111610673578281602093845f960137010152565b356001600160a01b03811681036106735790565b92919260e081019060866113c083836112dd565b9050106118bf576113d182826112dd565b91905f92603811610673576024013560601c956113ee84836112dd565b603e11610673576038013560d01c9461140785846112dd565b60441161067357603e013560d01c9461142081856112dd565b60441015611832576044013560f81c60010361188b5760e761144282866112dd565b9050106118465761145381856112dd565b606511610673576045013561146882866112dd565b606592919210156118325761147d83876112dd565b60861161067357606601359061149384886112dd565b60a6116106735760860135916114a888611398565b8d3b156106735760405163d505accf60e01b81526001600160a01b0390911660048201523060248201525f19604482015260648101929092526065939093013560f81c608482015260a481019290925260c48201525f8160e481838e5af180156106685761181b575b5061151c90846112dd565b908160a61161181757916115406115bd926115c69460a6369260a519019101611362565b905b8a8752600360205261155a60ff604089205416611245565b604051602081019182528b60408201528560608201528960808201528860a082015260a0815261158b60c082611310565b5190207f19457468657265756d205369676e6564204d6573736167653a0a3332000000008752601c52603c8620611b2a565b90929192611b64565b6001600160a01b031683526004602052604083205460ff16156117d7576115ed90876119dc565b906115f781611398565b6040516370a0823160e01b81526001600160a01b0390911660048201526020816024818b5afa9081156104525790839185916117a2575b501061175d5761163d81611398565b604051636eb1769f60e11b81526001600160a01b0390911660048201523060248201526020816044818b5afa908115610452579083918591611728575b50106116d95761168990611398565b60405196602088015260018060a01b031660408701526060860152606085526116b3608086611310565b5060a09190911b65ffffffffffff60a01b1660d09190911b6001600160d01b0319161790565b60405162461bcd60e51b815260206004820152602160248201527f5061796d61737465723a20696e73756666696369656e7420616c6c6f77616e636044820152606560f81b6064820152608490fd5b9150506020813d602011611755575b8161174460209383611310565b81010312610673578290515f61167a565b3d9150611737565b60405162461bcd60e51b815260206004820152601f60248201527f5061796d61737465723a20696e73756666696369656e742062616c616e6365006044820152606490fd5b9150506020813d6020116117cf575b816117be60209383611310565b81010312610673578290515f61162e565b3d91506117b1565b505060405160a09390931b65ffffffffffff60a01b1660d09290921b6001600160d01b031916919091176001179350611811602083611310565b81529190565b8580fd5b6118289195505f90611310565b5f9361151c611511565b634e487b7160e01b5f52603260045260245ffd5b60405162461bcd60e51b815260206004820152601e60248201527f5061796d61737465723a20696e76616c6964207065726d6974206461746100006044820152606490fd5b61189590846112dd565b909181604511610673576118b96115bd926115c69460453692604419019101611362565b90611542565b60405162461bcd60e51b815260206004820152602360248201527f5061796d61737465723a20696e76616c6964207061796d6173746572416e644460448201526261746160e81b6064820152608490fd5b1561191757565b60405162461bcd60e51b815260206004820152601c60248201527f5061796d61737465723a20696e76616c696420726563697069656e74000000006044820152606490fd5b919082018092116108bc57565b91908110156118325760051b0190565b90816020910312610673575180151581036106735790565b1561199857565b606460405162461bcd60e51b815260206004820152602060248201527f5061796d61737465723a20746f6b656e206e6f7420696e2072656769737472796044820152fd5b60015460405163d91efc3b60e01b81526001600160a01b039283166004820152602481019390935260209183916044918391165afa908115610668575f91611a3d575b5061290481029080820461290414901517156108bc57612710900490565b90506020813d602011611a67575b81611a5860209383611310565b8101031261067357515f611a1f565b3d9150611a4b565b5f546001600160a01b03163303611a8257565b63118cdaa760e01b5f523360045260245ffd5b60ff5f5460a01c16611aa357565b63d93c066560e01b5f5260045ffd5b916040519163a9059cbb60e01b5f5260018060a01b031660045260245260205f60448180865af19060015f5114821615611b12575b60405215611af25750565b635274afe760e01b5f9081526001600160a01b0391909116600452602490fd5b906001811516610d3757823b15153d15161690611ae7565b8151919060418303611b5a57611b539250602082015190606060408401519301515f1a90611bd8565b9192909190565b50505f9160029190565b6004811015611bc45780611b76575050565b60018103611b8d5763f645eedf60e01b5f5260045ffd5b60028103611ba8575063fce698f760e01b5f5260045260245ffd5b600314611bb25750565b6335e2f38360e21b5f5260045260245ffd5b634e487b7160e01b5f52602160045260245ffd5b91907f7fffffffffffffffffffffffffffffff5d576e7357a4501ddfe92f46681b20a08411611c4f579160209360809260ff5f9560405194855216868401526040830152606082015282805260015afa15610668575f516001600160a01b03811615611c4557905f905f90565b505f906001905f90565b5050505f916003919056fea264697066735822122007e6e21e72e3507dbfbf0f8662c8a357c45dc403e25c116a4d76fdd41e8e4f9a64736f6c634300082100330000000000000000000000000000000071727de22e5e9d8baf0edac6f37da032000000000000000000000000cc0be72a95d2f5b0071b3e2946f1d3d70e440c36",
        "nonce": "0x64",
        "chainId": "0x106a"
      },
      "additionalContracts": [],
      "isFixedGasLimit": false
    },
    {
      "hash": "0xa6b5851af47732a4978db9d877d41d4c3cf1c55e2c1aa005dc195e4b1509b792",
      "transactionType": "CALL",
      "contractName": "Paymaster",
      "contractAddress": "0xfbba03a7ec3f6ae73bd9ef6c4811b6ef0726d565",
      "function": "addSupportedTokens(address[])",
      "arguments": [
        "[0x301D9ed91BACB39B798a460D133105BA729c6302, 0x03F60361Aa488826e7DA7D7ADB2E1c6fC96D1B8B, 0x18bEA3CDa9dE68E74ba9F33F1B2e11ad345112f0, 0x97F9812a67b6cBA4F4D9b1013C5f4D708Ce9aA9e, 0xd10F51695bc3318759A75335EfE61E32727330b6, 0x5e8B38DC8E00c2332AC253600975502CF9fbF36a, 0xDFaE672AD0e094Ee64e370da99b1E37AB58AAc4f]"
      ],
      "transaction": {
        "from": "0x656fe1c1a9c92560d9183c42b8e6882c9e440b50",
        "to": "0xfbba03a7ec3f6ae73bd9ef6c4811b6ef0726d565",
        "gas": "0x51ab4",
        "value": "0x0",
        "input": "0x8c7ac74600000000000000000000000000000000000000000000000000000000000000200000000000000000000000000000000000000000000000000000000000000007000000000000000000000000301d9ed91bacb39b798a460d133105ba729c630200000000000000000000000003f60361aa488826e7da7d7adb2e1c6fc96d1b8b00000000000000000000000018bea3cda9de68e74ba9f33f1b2e11ad345112f000000000000000000000000097f9812a67b6cba4f4d9b1013c5f4d708ce9aa9e000000000000000000000000d10f51695bc3318759a75335efe61e32727330b60000000000000000000000005e8b38dc8e00c2332ac253600975502cf9fbf36a000000000000000000000000dfae672ad0e094ee64e370da99b1e37ab58aac4f",
        "nonce": "0x65",
        "chainId": "0x106a"
      },
      "additionalContracts": [],
      "isFixedGasLimit": false
    },
    {
      "hash": "0xeb04895c429782370a25126989367cb5e87a2445b8e121bb67773d6fdf6bb46e",
      "transactionType": "CALL",
      "contractName": "Paymaster",
      "contractAddress": "0xfbba03a7ec3f6ae73bd9ef6c4811b6ef0726d565",
      "function": "deposit()",
      "arguments": [],
      "transaction": {
        "from": "0x656fe1c1a9c92560d9183c42b8e6882c9e440b50",
        "to": "0xfbba03a7ec3f6ae73bd9ef6c4811b6ef0726d565",
        "gas": "0x13f16",
        "value": "0x2386f26fc10000",
        "input": "0xd0e30db0",
        "nonce": "0x66",
        "chainId": "0x106a"
      },
      "additionalContracts": [],
      "isFixedGasLimit": false
    }
  ],
  "receipts": [
    {
      "status": "0x1",
      "cumulativeGasUsed": "0x1b2ba6",
      "logs": [
        {
          "address": "0xfbba03a7ec3f6ae73bd9ef6c4811b6ef0726d565",
          "topics": [
            "0x8be0079c531659141344cd1fd0a4f28419497f9722a3daafe3b4186f6b6457e0",
            "0x0000000000000000000000000000000000000000000000000000000000000000",
            "0x000000000000000000000000656fe1c1a9c92560d9183c42b8e6882c9e440b50"
          ],
          "data": "0x",
          "blockHash": "0x3b4df7789933163fc1479610f4778226197d02ff26414b1a0c0dddd422f14486",
          "blockNumber": "0x1da0a03",
          "blockTimestamp": "0x695916e6",
          "transactionHash": "0xeb04895c429782370a25126989367cb5e87a2445b8e121bb67773d6fdf6bb46e",
          "transactionIndex": "0x1",
          "logIndex": "0x0",
          "removed": false
        },
        {
          "address": "0xfbba03a7ec3f6ae73bd9ef6c4811b6ef0726d565",
          "topics": [
            "0x482b97c53e48ffa324a976e2738053e9aff6eee04d8aac63b10e19411d869b82",
            "0x0000000000000000000000000000000000000000000000000000000000000000",
            "0x000000000000000000000000cc0be72a95d2f5b0071b3e2946f1d3d70e440c36"
          ],
          "data": "0x",
          "blockHash": "0x3b4df7789933163fc1479610f4778226197d02ff26414b1a0c0dddd422f14486",
          "blockNumber": "0x1da0a03",
          "blockTimestamp": "0x695916e6",
          "transactionHash": "0xeb04895c429782370a25126989367cb5e87a2445b8e121bb67773d6fdf6bb46e",
          "transactionIndex": "0x1",
          "logIndex": "0x1",
          "removed": false
        },
        {
          "address": "0xfbba03a7ec3f6ae73bd9ef6c4811b6ef0726d565",
          "topics": [
            "0xfcaa24b1276bfa7dbf77797c0a984b9df924acbeaabd48cd2f1b0eca379b78fa",
            "0x000000000000000000000000656fe1c1a9c92560d9183c42b8e6882c9e440b50"
          ],
          "data": "0x0000000000000000000000000000000000000000000000000000000000000001",
          "blockHash": "0x3b4df7789933163fc1479610f4778226197d02ff26414b1a0c0dddd422f14486",
          "blockNumber": "0x1da0a03",
          "blockTimestamp": "0x695916e6",
          "transactionHash": "0xeb04895c429782370a25126989367cb5e87a2445b8e121bb67773d6fdf6bb46e",
          "transactionIndex": "0x1",
          "logIndex": "0x2",
          "removed": false
        }
      ],
      "logsBloom": "0x00000000000000000000000000000000000000000000000000800000000000000000200400000000000000000000000000000000000000010000000000000000000000000000000000000000000000020001000000000000000000000200000000000000020000000000400000400800000020000000000000000000000000400000000000000000000000000000000040004000000000000000000000000004000000000000000000000000000000000000000000200000040000000000000000000000000000000000000000000000000000000000000000000000000020000000000000000000800000400000000000000000000000000000000000000000",
      "type": "0x2",
      "transactionHash": "0xeb04895c429782370a25126989367cb5e87a2445b8e121bb67773d6fdf6bb46e",
      "transactionIndex": "0x1",
      "blockHash": "0x3b4df7789933163fc1479610f4778226197d02ff26414b1a0c0dddd422f14486",
      "blockNumber": "0x1da0a03",
      "gasUsed": "0x1a7758",
      "effectiveGasPrice": "0xfe",
      "blobGasUsed": "0x1a8510",
      "from": "0x656fe1c1a9c92560d9183c42b8e6882c9e440b50",
      "to": null,
      "contractAddress": "0xfbba03a7ec3f6ae73bd9ef6c4811b6ef0726d565",
      "daFootprintGasScalar": "0x190",
      "l1BaseFeeScalar": "0x2af8",
      "l1BlobBaseFee": "0x1",
      "l1BlobBaseFeeScalar": "0x109618",
      "l1Fee": "0x3054",
      "l1GasPrice": "0xa",
      "l1GasUsed": "0x10f9b"
    },
    {
      "status": "0x1",
      "cumulativeGasUsed": "0x1eddae",
      "logs": [
        {
          "address": "0xfbba03a7ec3f6ae73bd9ef6c4811b6ef0726d565",
          "topics": [
            "0xbbe72b7d9dcb594ee398a4a617885aba53d833e2aad601c813ce9df99fdeb49b",
            "0x000000000000000000000000301d9ed91bacb39b798a460d133105ba729c6302"
          ],
          "data": "0x0000000000000000000000000000000000000000000000000000000000000001",
          "blockHash": "0x3b4df7789933163fc1479610f4778226197d02ff26414b1a0c0dddd422f14486",
          "blockNumber": "0x1da0a03",
          "blockTimestamp": "0x695916e6",
          "transactionHash": "0x967eed394d7fc4fa9a07e4e4e090d831654f967fae5b62e0bd498b88fb08b37e",
          "transactionIndex": "0x2",
          "logIndex": "0x3",
          "removed": false
        },
        {
          "address": "0xfbba03a7ec3f6ae73bd9ef6c4811b6ef0726d565",
          "topics": [
            "0xbbe72b7d9dcb594ee398a4a617885aba53d833e2aad601c813ce9df99fdeb49b",
            "0x00000000000000000000000003f60361aa488826e7da7d7adb2e1c6fc96d1b8b"
          ],
          "data": "0x0000000000000000000000000000000000000000000000000000000000000001",
          "blockHash": "0x3b4df7789933163fc1479610f4778226197d02ff26414b1a0c0dddd422f14486",
          "blockNumber": "0x1da0a03",
          "blockTimestamp": "0x695916e6",
          "transactionHash": "0x967eed394d7fc4fa9a07e4e4e090d831654f967fae5b62e0bd498b88fb08b37e",
          "transactionIndex": "0x2",
          "logIndex": "0x4",
          "removed": false
        },
        {
          "address": "0xfbba03a7ec3f6ae73bd9ef6c4811b6ef0726d565",
          "topics": [
            "0xbbe72b7d9dcb594ee398a4a617885aba53d833e2aad601c813ce9df99fdeb49b",
            "0x00000000000000000000000018bea3cda9de68e74ba9f33f1b2e11ad345112f0"
          ],
          "data": "0x0000000000000000000000000000000000000000000000000000000000000001",
          "blockHash": "0x3b4df7789933163fc1479610f4778226197d02ff26414b1a0c0dddd422f14486",
          "blockNumber": "0x1da0a03",
          "blockTimestamp": "0x695916e6",
          "transactionHash": "0x967eed394d7fc4fa9a07e4e4e090d831654f967fae5b62e0bd498b88fb08b37e",
          "transactionIndex": "0x2",
          "logIndex": "0x5",
          "removed": false
        },
        {
          "address": "0xfbba03a7ec3f6ae73bd9ef6c4811b6ef0726d565",
          "topics": [
            "0xbbe72b7d9dcb594ee398a4a617885aba53d833e2aad601c813ce9df99fdeb49b",
            "0x00000000000000000000000097f9812a67b6cba4f4d9b1013c5f4d708ce9aa9e"
          ],
          "data": "0x0000000000000000000000000000000000000000000000000000000000000001",
          "blockHash": "0x3b4df7789933163fc1479610f4778226197d02ff26414b1a0c0dddd422f14486",
          "blockNumber": "0x1da0a03",
          "blockTimestamp": "0x695916e6",
          "transactionHash": "0x967eed394d7fc4fa9a07e4e4e090d831654f967fae5b62e0bd498b88fb08b37e",
          "transactionIndex": "0x2",
          "logIndex": "0x6",
          "removed": false
        },
        {
          "address": "0xfbba03a7ec3f6ae73bd9ef6c4811b6ef0726d565",
          "topics": [
            "0xbbe72b7d9dcb594ee398a4a617885aba53d833e2aad601c813ce9df99fdeb49b",
            "0x000000000000000000000000d10f51695bc3318759a75335efe61e32727330b6"
          ],
          "data": "0x0000000000000000000000000000000000000000000000000000000000000001",
          "blockHash": "0x3b4df7789933163fc1479610f4778226197d02ff26414b1a0c0dddd422f14486",
          "blockNumber": "0x1da0a03",
          "blockTimestamp": "0x695916e6",
          "transactionHash": "0x967eed394d7fc4fa9a07e4e4e090d831654f967fae5b62e0bd498b88fb08b37e",
          "transactionIndex": "0x2",
          "logIndex": "0x7",
          "removed": false
        },
        {
          "address": "0xfbba03a7ec3f6ae73bd9ef6c4811b6ef0726d565",
          "topics": [
            "0xbbe72b7d9dcb594ee398a4a617885aba53d833e2aad601c813ce9df99fdeb49b",
            "0x0000000000000000000000005e8b38dc8e00c2332ac253600975502cf9fbf36a"
          ],
          "data": "0x0000000000000000000000000000000000000000000000000000000000000001",
          "blockHash": "0x3b4df7789933163fc1479610f4778226197d02ff26414b1a0c0dddd422f14486",
          "blockNumber": "0x1da0a03",
          "blockTimestamp": "0x695916e6",
          "transactionHash": "0x967eed394d7fc4fa9a07e4e4e090d831654f967fae5b62e0bd498b88fb08b37e",
          "transactionIndex": "0x2",
          "logIndex": "0x8",
          "removed": false
        },
        {
          "address": "0xfbba03a7ec3f6ae73bd9ef6c4811b6ef0726d565",
          "topics": [
            "0xbbe72b7d9dcb594ee398a4a617885aba53d833e2aad601c813ce9df99fdeb49b",
            "0x000000000000000000000000dfae672ad0e094ee64e370da99b1e37ab58aac4f"
          ],
          "data": "0x0000000000000000000000000000000000000000000000000000000000000001",
          "blockHash": "0x3b4df7789933163fc1479610f4778226197d02ff26414b1a0c0dddd422f14486",
          "blockNumber": "0x1da0a03",
          "blockTimestamp": "0x695916e6",
          "transactionHash": "0x967eed394d7fc4fa9a07e4e4e090d831654f967fae5b62e0bd498b88fb08b37e",
          "transactionIndex": "0x2",
          "logIndex": "0x9",
          "removed": false
        }
      ],
      "logsBloom": "0x00000000000000000000000000000100000000000000000000000000008000000000001000000000000000000000000000040000000000000000000000000000008000000000000000000000000000000000000000000000000000000200001000000000000000000000400000000000008000000008000000000020000000000000000000000400008000000000000000000001000100000000000000000000000000000000000040400000000000000000000000002000000000000000000000000000000000000100000000001000400000000000000002000000010000000000000000000040000000400000000000000000000000004000002000000000",
      "type": "0x2",
      "transactionHash": "0x967eed394d7fc4fa9a07e4e4e090d831654f967fae5b62e0bd498b88fb08b37e",
      "transactionIndex": "0x2",
      "blockHash": "0x3b4df7789933163fc1479610f4778226197d02ff26414b1a0c0dddd422f14486",
      "blockNumber": "0x1da0a03",
      "gasUsed": "0x3b208",
      "effectiveGasPrice": "0xfe",
      "blobGasUsed": "0x15310",
      "from": "0x656fe1c1a9c92560d9183c42b8e6882c9e440b50",
      "to": "0xfbba03a7ec3f6ae73bd9ef6c4811b6ef0726d565",
      "contractAddress": null,
      "daFootprintGasScalar": "0x190",
      "l1BaseFeeScalar": "0x2af8",
      "l1BlobBaseFee": "0x1",
      "l1BlobBaseFeeScalar": "0x109618",
      "l1Fee": "0x26b",
      "l1GasPrice": "0xa",
      "l1GasUsed": "0xd99"
    },
    {
      "status": "0x1",
      "cumulativeGasUsed": "0x1fc4b2",
      "logs": [
        {
          "address": "0x0000000071727de22e5e9d8baf0edac6f37da032",
          "topics": [
            "0x2da466a7b24304f47e87fa2e1e5a81b9831ce54fec19055ce277ca2f39ba42c4",
            "0x000000000000000000000000fbba03a7ec3f6ae73bd9ef6c4811b6ef0726d565"
          ],
          "data": "0x000000000000000000000000000000000000000000000000002386f26fc10000",
          "blockHash": "0x3b4df7789933163fc1479610f4778226197d02ff26414b1a0c0dddd422f14486",
          "blockNumber": "0x1da0a03",
          "blockTimestamp": "0x695916e6",
          "transactionHash": "0xa6b5851af47732a4978db9d877d41d4c3cf1c55e2c1aa005dc195e4b1509b792",
          "transactionIndex": "0x3",
          "logIndex": "0xa",
          "removed": false
        },
        {
          "address": "0xfbba03a7ec3f6ae73bd9ef6c4811b6ef0726d565",
          "topics": [
            "0x2da466a7b24304f47e87fa2e1e5a81b9831ce54fec19055ce277ca2f39ba42c4",
            "0x000000000000000000000000fbba03a7ec3f6ae73bd9ef6c4811b6ef0726d565"
          ],
          "data": "0x000000000000000000000000000000000000000000000000002386f26fc10000",
          "blockHash": "0x3b4df7789933163fc1479610f4778226197d02ff26414b1a0c0dddd422f14486",
          "blockNumber": "0x1da0a03",
          "blockTimestamp": "0x695916e6",
          "transactionHash": "0xa6b5851af47732a4978db9d877d41d4c3cf1c55e2c1aa005dc195e4b1509b792",
          "transactionIndex": "0x3",
          "logIndex": "0xb",
          "removed": false
        }
      ],
      "logsBloom": "0x00000000000000000000000000000000000000000000000000000100000000000000000000000000000000000000000000000000000000000000000000000000000000000000000000000000000000000040000000000000000000000200200000000000000800000000400000000000000000000000000000000000000200000000000000000000000000000000000000000000000000000000000000000000000000000000000000000000000000000000000000000004000000000000000000000000000000400000000000000000000000000000000000000000000000000040000000000000000008400000000000000000000000000000000000000000",
      "type": "0x2",
      "transactionHash": "0xa6b5851af47732a4978db9d877d41d4c3cf1c55e2c1aa005dc195e4b1509b792",
      "transactionIndex": "0x3",
      "blockHash": "0x3b4df7789933163fc1479610f4778226197d02ff26414b1a0c0dddd422f14486",
      "blockNumber": "0x1da0a03",
      "gasUsed": "0xe704",
      "effectiveGasPrice": "0xfe",
      "blobGasUsed": "0x9c40",
      "from": "0x656fe1c1a9c92560d9183c42b8e6882c9e440b50",
      "to": "0xfbba03a7ec3f6ae73bd9ef6c4811b6ef0726d565",
      "contractAddress": null,
      "daFootprintGasScalar": "0x190",
      "l1BaseFeeScalar": "0x2af8",
      "l1BlobBaseFee": "0x1",
      "l1BlobBaseFeeScalar": "0x109618",
      "l1Fee": "0x11c",
      "l1GasPrice": "0xa",
      "l1GasUsed": "0x640"
    }
  ],
  "libraries": [],
  "pending": [],
  "returns": {},
  "timestamp": 1767446247711,
  "chain": 4202,
  "commit": "8bf7b72"
}