{
  "transactions": [
    {
      "hash": "0x45367f138dc7cb91de2209d9ac62b1884c7be0d87045c69153d497fc43317843",
      "transactionType": "CREATE",
      "contractName": "Paymaster",
      "contractAddress": "0xad995c290eea192fc8585179ba9d576eae34fe8b",
      "function": null,
      "arguments": [
        "0x0000000071727De22E5E9d8BAf0edAc6f37da032",
        "0xCC0Be72a95d2f5b0071b3E2946f1D3D70e440C36"
      ],
      "transaction": {
        "from": "0x656fe1c1a9c92560d9183c42b8e6882c9e440b50",
        "gas": "0x225f1c",
        "value": "0x0",
        "input": "0x60a03461020257601f611eb738819003918201601f19168301916001600160401b0383118484101761020657808492604094855283398101031261020257610052602061004b8361021a565b920161021a565b33156101ef575f8054336001600160a01b0319821681178355604051949290916001600160a01b0316907f8be0079c531659141344cd1fd0a4f28419497f9722a3daafe3b4186f6b6457e09080a360017f9b779b17422d0df92223018b32b4d1fa46e071723d6817e2486d003becc55f00556001600160a01b03169081156101e0576001600160a01b031691821561019e57506080528060018060a01b03196001541617600155335f52600460205260405f20600160ff19825416179055604051905f7f482b97c53e48ffa324a976e2738053e9aff6eee04d8aac63b10e19411d869b828180a3600181527ffcaa24b1276bfa7dbf77797c0a984b9df924acbeaabd48cd2f1b0eca379b78fa60203392a2604051611c88908161022f82396080518181816104e8015281816105bb015281816106a20152818161072c01528181610beb01526110200152f35b62461bcd60e51b815260206004820152601b60248201527f5061796d61737465723a20696e76616c696420726567697374727900000000006044820152606490fd5b632039d3c960e01b5f5260045ffd5b631e4fbdf760e01b5f525f60045260245ffd5b5f80fd5b634e487b7160e01b5f52604160045260245ffd5b51906001600160a01b03821682036102025756fe6080604052600436101561001a575b3615610018575f80fd5b005b5f5f3560e01c80630fd659ea1461118b5780631cead9a71461075b578063240028e814610df457806331cb6105146111065780633f4ba83a1461109a57806349045e1614610f8057806352b7512c14610fe15780635c975abb14610fbd5780635d2b6a4e14610f805780636382d9ad14610e3157806368c4ac2614610df45780636d58d2e814610dd85780636e25128e14610dbb578063715018a614610d64578063796d437114610d485780637c627b2114610b825780638456cb5914610b225780638b28ab1e14610ad05780638c7ac7461461094b5780638da5cb5b146109245780639ba372c214610793578063a3daed991461075b578063b0d691fe14610717578063c399ec8814610677578063c7d7630814610594578063d0e30db0146104d1578063df61515a146104a9578063e1a452181461048c578063e3bbb4f11461046c578063e798646614610335578063eb8a9cfe1461027b578063f2fde38b146101f5578063fb85687a146101cc5763feb617241461019b575061000e565b346101c95760203660031901126101c95760ff60406020926004358152600584522054166040519015158152f35b80fd5b50346101c957806003193601126101c9576001546040516001600160a01b039091168152602090f35b50346101c95760203660031901126101c95761020f6111e8565b610217611a67565b6001600160a01b031680156102675781546001600160a01b03198116821783556001600160a01b03167f8be0079c531659141344cd1fd0a4f28419497f9722a3daafe3b4186f6b6457e08380a380f35b631e4fbdf760e01b82526004829052602482fd5b50346101c95760203660031901126101c9576102956111e8565b61029d611a67565b6001600160a01b031680156102f057600180546001600160a01b0319811683179091556001600160a01b03167f482b97c53e48ffa324a976e2738053e9aff6eee04d8aac63b10e19411d869b828380a380f35b60405162461bcd60e51b815260206004820152601b60248201527f5061796d61737465723a20696e76616c696420726567697374727900000000006044820152606490fd5b50346101c95761034436611212565b9061034d611a67565b6001600160a01b031690811561045d57806103b3575b60207fbbe72b7d9dcb594ee398a4a617885aba53d833e2aad601c813ce9df99fdeb49b91838552600382526103a781604087209060ff801983541691151516179055565b6040519015158152a280f35b60015460405163680949e560e11b8152600481018490529190602090839060249082906001600160a01b03165afa9081156104525761041d6020927fbbe72b7d9dcb594ee398a4a617885aba53d833e2aad601c813ce9df99fdeb49b948791610425575b50611989565b915050610363565b6104459150843d861161044b575b61043d818361130c565b810190611971565b5f610417565b503d610433565b6040513d86823e3d90fd5b63c1ab6dc160e01b8352600483fd5b50346101c957806003193601126101c957602060405164e8d4a510008152f35b50346101c957806003193601126101c95760206040516127108152f35b50346101c957806003193601126101c95760408051620186a0815264e8d4a510006020820152f35b50806003193601126101c9576104e5611a67565b807f00000000000000000000000000000000000000000000000000000000000000006001600160a01b0316803b1561059157816024916040519283809263b760faf960e01b825230600483015234905af1801561058657610571575b506040513481527f2da466a7b24304f47e87fa2e1e5a81b9831ce54fec19055ce277ca2f39ba42c460203092a280f35b8161057b9161130c565b6101c957805f610541565b6040513d84823e3d90fd5b50fd5b5034610673576040366003190112610673576105ae6111e8565b6024356105b9611a67565b7f00000000000000000000000000000000000000000000000000000000000000006001600160a01b031691823b15610673575f809160446040518094819363040b850f60e31b835260018060a01b0316978860048401528760248401525af1801561066857610652575b5060207f7084f5476618d8e60b11ef0d7d3f06914655adb8793e28ff7f018d4c76d505d591604051908152a280f35b61065f9193505f9061130c565b5f916020610623565b6040513d5f823e3d90fd5b5f80fd5b34610673575f366003190112610673576040516370a0823160e01b81523060048201526020816024817f00000000000000000000000000000000000000000000000000000000000000006001600160a01b03165afa8015610668575f906106e4575b602090604051908152f35b506020813d60201161070f575b816106fe6020938361130c565b8101031261067357602090516106d9565b3d91506106f1565b34610673575f366003190112610673576040517f00000000000000000000000000000000000000000000000000000000000000006001600160a01b03168152602090f35b34610673576020366003190112610673576001600160a01b0361077c6111e8565b165f526002602052602060405f2054604051908152f35b34610673576060366003190112610673576107ac6111e8565b6044356001600160a01b0381169160243590838303610673576107cd611a67565b60027f9b779b17422d0df92223018b32b4d1fa46e071723d6817e2486d003becc55f0054146109155760027f9b779b17422d0df92223018b32b4d1fa46e071723d6817e2486d003becc55f0055610825841515611908565b6001600160a01b03165f8181526002602052604090205490929082116108d057825f52600260205260405f209182548181039081116108bc578160209361088f927f87044da2612407bc001bb0985725dcc651a0dc71eaabfd1d7e8617ca85a8c19c965586611aaa565b604051908152a360017f9b779b17422d0df92223018b32b4d1fa46e071723d6817e2486d003becc55f0055005b634e487b7160e01b5f52601160045260245ffd5b60405162461bcd60e51b815260206004820152601c60248201527f5061796d61737465723a20696e73756666696369656e742066656573000000006044820152606490fd5b633ee5aeb560e01b5f5260045ffd5b34610673575f366003190112610673575f546040516001600160a01b039091168152602090f35b346106735760203660031901126106735760043567ffffffffffffffff811161067357366023820112156106735780600401359067ffffffffffffffff8211610673576024810190602436918460051b010111610673576109aa611a67565b5f5b8281106109b557005b6001600160a01b036109d06109cb838686611961565b611394565b1615610ac1576001546001600160a01b03169060206109f36109cb838787611961565b60405163680949e560e11b81526001600160a01b03909116600482015292839060249082905afa91821561066857600192610a34915f91610aa35750611989565b818060a01b03610a486109cb838787611961565b165f52600360205260405f208260ff19825416179055818060a01b03610a726109cb838787611961565b167fbbe72b7d9dcb594ee398a4a617885aba53d833e2aad601c813ce9df99fdeb49b6020604051858152a2016109ac565b610abb915060203d811161044b5761043d818361130c565b86610417565b63c1ab6dc160e01b5f5260045ffd5b34610673576040366003190112610673576020610b1a610aee6111e8565b6001600160a01b0381165f908152600384526040902054610b119060ff16611241565b602435906119d4565b604051908152f35b34610673575f36600319011261067357610b3a611a67565b610b42611a8d565b5f805460ff60a01b1916600160a01b1790556040513381527f62e78cea01bee320cd4e420270b5ea74000d11b0c9f74754ebdbfc544b05a25890602090a1005b34610673576080366003190112610673576004356003811015610673576024359067ffffffffffffffff8211610673573660238301121561067357816004013567ffffffffffffffff8111610673578201903660248301116106735760643591606090610c19337f00000000000000000000000000000000000000000000000000000000000000006001600160a01b03161461128d565b8490031261067357610c2d602484016111fe565b916064610c3c604486016111fe565b6001600160a01b0394851695941693619c4080840293929091013591908304036108bc57610c77610c71600293604435611954565b866119d4565b9080821015610d405750915b03610c8a57005b6040516323b872dd60e01b5f5282600452306024528160445260205f60648180885af19060015f5114821615610d1f575b6040525f60605215610d0c5760207fc9991e76367ebf3387530c533ae59ea7535aa764f043134baaf8b3dd3ad7062691845f526002825260405f20610d01828254611954565b9055604051908152a3005b82635274afe760e01b5f5260045260245ffd5b906001811516610d3757843b15153d15161690610cbb565b503d5f823e3d90fd5b905091610c83565b34610673575f366003190112610673576020604051619c408152f35b34610673575f36600319011261067357610d7c611a67565b5f80546001600160a01b0319811682556001600160a01b03167f8be0079c531659141344cd1fd0a4f28419497f9722a3daafe3b4186f6b6457e08280a3005b34610673575f366003190112610673576020604051620186a08152f35b34610673575f3660031901126106735760206040516101f48152f35b34610673576020366003190112610673576001600160a01b03610e156111e8565b165f526003602052602060ff60405f2054166040519015158152f35b3461067357604036600319011261067357610e4a6111e8565b602435906001600160a01b03821680830361067357610e7290610e6b611a67565b1515611908565b6001600160a01b031680610f0357505f8080809347905af13d15610efe573d610e9a81611342565b90610ea8604051928361130c565b81525f60203d92013e5b15610eb957005b60405162461bcd60e51b815260206004820152601e60248201527f5061796d61737465723a20455448207472616e73666572206661696c656400006044820152606490fd5b610eb2565b6040516370a0823160e01b81523060048201529091602082602481865afa908115610668575f91610f4a575b610f3a925083611aaa565b5f90815260026020526040812055005b90506020823d602011610f78575b81610f656020938361130c565b8101031261067357610f3a915190610f2f565b3d9150610f58565b34610673576020366003190112610673576001600160a01b03610fa16111e8565b165f526004602052602060ff60405f2054166040519015158152f35b34610673575f36600319011261067357602060ff5f5460a01c166040519015158152f35b346106735760603660031901126106735760043567ffffffffffffffff8111610673576101206003198236030112610673576060906110629061104e337f00000000000000000000000000000000000000000000000000000000000000006001600160a01b03161461128d565b611056611a8d565b604435906004016113a8565b91906020604051938492604084528051928391826040870152018585015e5f8383018501526020830152601f01601f19168101030190f35b34610673575f366003190112610673576110b2611a67565b5f5460ff8160a01c16156110f75760ff60a01b19165f556040513381527f5db9ee0a495bf2e6ff9c91a7834c1ba4fdd244a5e8aa4e537bd38aeae4b073aa90602090a1005b638dfc202b60e01b5f5260045ffd5b346106735761111436611212565b9061111d611a67565b6001600160a01b031690811561117c5760207ffcaa24b1276bfa7dbf77797c0a984b9df924acbeaabd48cd2f1b0eca379b78fa91835f52600482526111718160405f209060ff801983541691151516179055565b6040519015158152a2005b632057875960e21b5f5260045ffd5b34610673576060366003190112610673576111a46111e8565b602435906044359160018060a01b0382165f5260036020526111cc60ff60405f205416611241565b8281029281840414901517156108bc57602091610b1a916119d4565b600435906001600160a01b038216820361067357565b35906001600160a01b038216820361067357565b6040906003190112610673576004356001600160a01b0381168103610673579060243580151581036106735790565b1561124857565b60405162461bcd60e51b815260206004820152601e60248201527f5061796d61737465723a20746f6b656e206e6f7420737570706f7274656400006044820152606490fd5b1561129457565b60405162461bcd60e51b815260206004820152601960248201527f5061796d61737465723a206e6f7420456e747279506f696e74000000000000006044820152606490fd5b903590601e1981360301821215610673570180359067ffffffffffffffff82116106735760200191813603831361067357565b90601f8019910116810190811067ffffffffffffffff82111761132e57604052565b634e487b7160e01b5f52604160045260245ffd5b67ffffffffffffffff811161132e57601f01601f191660200190565b92919261136a82611342565b91611378604051938461130c565b829481845281830111610673578281602093845f960137010152565b356001600160a01b03811681036106735790565b919060e0830160966113ba82866112d9565b9050106118b7576113cb81856112d9565b905f91604811610673576034013560601c946113e783826112d9565b604e11610673576048013560d01c9361140084836112d9565b60541161067357604e013560d01c9361141981846112d9565b6054101561182d576054013560f81c6001036118865760f761143b82856112d9565b9050106118415761144c81846112d9565b607511610673576055013561146182856112d9565b6075929192101561182d5761147683866112d9565b609611610673576076013561148b84876112d9565b60b6116106735760960135916114a087611394565b938c3b156106735760405163d505accf60e01b81526001600160a01b0390951660048601523060248601525f19604486015260648501919091526075013560f81c608484015260a483015260c48201525f8160e481838d5af1801561066857611816575b5061150f90836112d9565b908160b611611812576115326115c1926115b89260b6369260b51901910161135e565b898652600360205261154a60ff604088205416611241565b61155385611394565b604051602081019160018060a01b031682528b60408201528960608201528860808201526080815261158660a08261130c565b5190207f19457468657265756d205369676e6564204d6573736167653a0a3332000000008752601c52603c8620611b22565b90929192611b5c565b6001600160a01b031683526004602052604083205460ff16156117d2576115e890876119d4565b906115f281611394565b6040516370a0823160e01b81526001600160a01b0390911660048201526020816024818b5afa90811561045257908391859161179d575b50106117585761163881611394565b604051636eb1769f60e11b81526001600160a01b0390911660048201523060248201526020816044818b5afa908115610452579083918591611723575b50106116d45761168490611394565b60405196602088015260018060a01b031660408701526060860152606085526116ae60808661130c565b5060a09190911b65ffffffffffff60a01b1660d09190911b6001600160d01b0319161790565b60405162461bcd60e51b815260206004820152602160248201527f5061796d61737465723a20696e73756666696369656e7420616c6c6f77616e636044820152606560f81b6064820152608490fd5b9150506020813d602011611750575b8161173f6020938361130c565b81010312610673578290515f611675565b3d9150611732565b60405162461bcd60e51b815260206004820152601f60248201527f5061796d61737465723a20696e73756666696369656e742062616c616e6365006044820152606490fd5b9150506020813d6020116117ca575b816117b96020938361130c565b81010312610673578290515f611629565b3d91506117ac565b505060405160a09390931b65ffffffffffff60a01b1660d09290921b6001600160d01b03191691909117600117935061180c60208361130c565b81529190565b8480fd5b6118239194505f9061130c565b5f9261150f611504565b634e487b7160e01b5f52603260045260245ffd5b60405162461bcd60e51b815260206004820152601e60248201527f5061796d61737465723a20696e76616c6964207065726d6974206461746100006044820152606490fd5b61189090836112d9565b80605511610673576118b26115b8916115c1936055369260541901910161135e565b611532565b60405162461bcd60e51b815260206004820152602360248201527f5061796d61737465723a20696e76616c6964207061796d6173746572416e644460448201526261746160e81b6064820152608490fd5b1561190f57565b60405162461bcd60e51b815260206004820152601c60248201527f5061796d61737465723a20696e76616c696420726563697069656e74000000006044820152606490fd5b919082018092116108bc57565b919081101561182d5760051b0190565b90816020910312610673575180151581036106735790565b1561199057565b606460405162461bcd60e51b815260206004820152602060248201527f5061796d61737465723a20746f6b656e206e6f7420696e2072656769737472796044820152fd5b60015460405163d91efc3b60e01b81526001600160a01b039283166004820152602481019390935260209183916044918391165afa908115610668575f91611a35575b5061290481029080820461290414901517156108bc57612710900490565b90506020813d602011611a5f575b81611a506020938361130c565b8101031261067357515f611a17565b3d9150611a43565b5f546001600160a01b03163303611a7a57565b63118cdaa760e01b5f523360045260245ffd5b60ff5f5460a01c16611a9b57565b63d93c066560e01b5f5260045ffd5b916040519163a9059cbb60e01b5f5260018060a01b031660045260245260205f60448180865af19060015f5114821615611b0a575b60405215611aea5750565b635274afe760e01b5f9081526001600160a01b0391909116600452602490fd5b906001811516610d3757823b15153d15161690611adf565b8151919060418303611b5257611b4b9250602082015190606060408401519301515f1a90611bd0565b9192909190565b50505f9160029190565b6004811015611bbc5780611b6e575050565b60018103611b855763f645eedf60e01b5f5260045ffd5b60028103611ba0575063fce698f760e01b5f5260045260245ffd5b600314611baa5750565b6335e2f38360e21b5f5260045260245ffd5b634e487b7160e01b5f52602160045260245ffd5b91907f7fffffffffffffffffffffffffffffff5d576e7357a4501ddfe92f46681b20a08411611c47579160209360809260ff5f9560405194855216868401526040830152606082015282805260015afa15610668575f516001600160a01b03811615611c3d57905f905f90565b505f906001905f90565b5050505f916003919056fea26469706673582212202f64c53579c70812e768971d8927cc5076273228649de40cbbf03da371c62be464736f6c634300082100330000000000000000000000000000000071727de22e5e9d8baf0edac6f37da032000000000000000000000000cc0be72a95d2f5b0071b3e2946f1d3d70e440c36",
        "nonce": "0x73",
        "chainId": "0x106a"
      },
      "additionalContracts": [],
      "isFixedGasLimit": false
    },
    {
      "hash": "0x45179b2cfc4aeea1e1ba0211950892617556397528ce5166c73fbe2203ff1d79",
      "transactionType": "CALL",
      "contractName": "Paymaster",
      "contractAddress": "0xad995c290eea192fc8585179ba9d576eae34fe8b",
      "function": "addSupportedTokens(address[])",
      "arguments": [
        "[0x301D9ed91BACB39B798a460D133105BA729c6302, 0x03F60361Aa488826e7DA7D7ADB2E1c6fC96D1B8B, 0x18bEA3CDa9dE68E74ba9F33F1B2e11ad345112f0, 0x97F9812a67b6cBA4F4D9b1013C5f4D708Ce9aA9e, 0xd10F51695bc3318759A75335EfE61E32727330b6, 0x5e8B38DC8E00c2332AC253600975502CF9fbF36a, 0xDFaE672AD0e094Ee64e370da99b1E37AB58AAc4f]"
      ],
      "transaction": {
        "from": "0x656fe1c1a9c92560d9183c42b8e6882c9e440b50",
        "to": "0xad995c290eea192fc8585179ba9d576eae34fe8b",
        "gas": "0x51ab4",
        "value": "0x0",
        "input": "0x8c7ac74600000000000000000000000000000000000000000000000000000000000000200000000000000000000000000000000000000000000000000000000000000007000000000000000000000000301d9ed91bacb39b798a460d133105ba729c630200000000000000000000000003f60361aa488826e7da7d7adb2e1c6fc96d1b8b00000000000000000000000018bea3cda9de68e74ba9f33f1b2e11ad345112f000000000000000000000000097f9812a67b6cba4f4d9b1013c5f4d708ce9aa9e000000000000000000000000d10f51695bc3318759a75335efe61e32727330b60000000000000000000000005e8b38dc8e00c2332ac253600975502cf9fbf36a000000000000000000000000dfae672ad0e094ee64e370da99b1e37ab58aac4f",
        "nonce": "0x74",
        "chainId": "0x106a"
      },
      "additionalContracts": [],
      "isFixedGasLimit": false
    },
    {
      "hash": "0x1b69424f10838415d73072178c81016123d9f18dee7dbb5fd9b8823e5cd199f8",
      "transactionType": "CALL",
      "contractName": "Paymaster",
      "contractAddress": "0xad995c290eea192fc8585179ba9d576eae34fe8b",
      "function": "deposit()",
      "arguments": [],
      "transaction": {
        "from": "0x656fe1c1a9c92560d9183c42b8e6882c9e440b50",
        "to": "0xad995c290eea192fc8585179ba9d576eae34fe8b",
        "gas": "0x13f16",
        "value": "0x2386f26fc10000",
        "input": "0xd0e30db0",
        "nonce": "0x75",
        "chainId": "0x106a"
      },
      "additionalContracts": [],
      "isFixedGasLimit": false
    }
  ],
  "receipts": [
    {
      "status": "0x1",
      "cumulativeGasUsed": "0x1b3aae",
      "logs": [
        {
          "address": "0xad995c290eea192fc8585179ba9d576eae34fe8b",
          "topics": [
            "0x8be0079c531659141344cd1fd0a4f28419497f9722a3daafe3b4186f6b6457e0",
            "0x0000000000000000000000000000000000000000000000000000000000000000",
            "0x000000000000000000000000656fe1c1a9c92560d9183c42b8e6882c9e440b50"
          ],
          "data": "0x",
          "blockHash": "0x2b29985648dd001f0dcda46724fa2896648dc6e1c3e0cde5b3aeb62c3e3440e2",
          "blockNumber": "0x1da9e42",
          "blockTimestamp": "0x695a3f64",
          "transactionHash": "0x45179b2cfc4aeea1e1ba0211950892617556397528ce5166c73fbe2203ff1d79",
          "transactionIndex": "0x1",
          "logIndex": "0x0",
          "removed": false
        },
        {
          "address": "0xad995c290eea192fc8585179ba9d576eae34fe8b",
          "topics": [
            "0x482b97c53e48ffa324a976e2738053e9aff6eee04d8aac63b10e19411d869b82",
            "0x0000000000000000000000000000000000000000000000000000000000000000",
            "0x000000000000000000000000cc0be72a95d2f5b0071b3e2946f1d3d70e440c36"
          ],
          "data": "0x",
          "blockHash": "0x2b29985648dd001f0dcda46724fa2896648dc6e1c3e0cde5b3aeb62c3e3440e2",
          "blockNumber": "0x1da9e42",
          "blockTimestamp": "0x695a3f64",
          "transactionHash": "0x45179b2cfc4aeea1e1ba0211950892617556397528ce5166c73fbe2203ff1d79",
          "transactionIndex": "0x1",
          "logIndex": "0x1",
          "removed": false
        },
        {
          "address": "0xad995c290eea192fc8585179ba9d576eae34fe8b",
          "topics": [
            "0xfcaa24b1276bfa7dbf77797c0a984b9df924acbeaabd48cd2f1b0eca379b78fa",
            "0x000000000000000000000000656fe1c1a9c92560d9183c42b8e6882c9e440b50"
          ],
          "data": "0x0000000000000000000000000000000000000000000000000000000000000001",
          "blockHash": "0x2b29985648dd001f0dcda46724fa2896648dc6e1c3e0cde5b3aeb62c3e3440e2",
          "blockNumber": "0x1da9e42",
          "blockTimestamp": "0x695a3f64",
          "transactionHash": "0x45179b2cfc4aeea1e1ba0211950892617556397528ce5166c73fbe2203ff1d79",
          "transactionIndex": "0x1",
          "logIndex": "0x2",
          "removed": false
        }
      ],
      "logsBloom": "0x00000000000000000000000000000000000000000000000000800000000000000000200400000000000000000400000000000000000000010000000000000000000000000000000000000000000000020001000000000000000000000000000000000000020000000000000000400800000020000000000000000000000000400000000000000000000000000000000040004000000000000000000000000004000000000000000000000000000000000000000000200000040000000000000000000000000000000000400000000000000000000000000000000000000020000000000000200000800000000000000000000000000000000000000000000000",
      "type": "0x2",
      "transactionHash": "0x45179b2cfc4aeea1e1ba0211950892617556397528ce5166c73fbe2203ff1d79",
      "transactionIndex": "0x1",
      "blockHash": "0x2b29985648dd001f0dcda46724fa2896648dc6e1c3e0cde5b3aeb62c3e3440e2",
      "blockNumber": "0x1da9e42",
      "gasUsed": "0x1a708c",
      "effectiveGasPrice": "0xfe",
      "blobGasUsed": "0x1a9320",
      "from": "0x656fe1c1a9c92560d9183c42b8e6882c9e440b50",
      "to": null,
      "contractAddress": "0xad995c290eea192fc8585179ba9d576eae34fe8b",
      "daFootprintGasScalar": "0x190",
      "l1BaseFeeScalar": "0x2af8",
      "l1BlobBaseFee": "0x1",
      "l1BlobBaseFeeScalar": "0x109618",
      "l1Fee": "0x2a6f",
      "l1GasPrice": "0x8",
      "l1GasUsed": "0x11020"
    },
    {
      "status": "0x1",
      "cumulativeGasUsed": "0x1eecb6",
      "logs": [
        {
          "address": "0xad995c290eea192fc8585179ba9d576eae34fe8b",
          "topics": [
            "0xbbe72b7d9dcb594ee398a4a617885aba53d833e2aad601c813ce9df99fdeb49b",
            "0x000000000000000000000000301d9ed91bacb39b798a460d133105ba729c6302"
          ],
          "data": "0x0000000000000000000000000000000000000000000000000000000000000001",
          "blockHash": "0x2b29985648dd001f0dcda46724fa2896648dc6e1c3e0cde5b3aeb62c3e3440e2",
          "blockNumber": "0x1da9e42",
          "blockTimestamp": "0x695a3f64",
          "transactionHash": "0x45367f138dc7cb91de2209d9ac62b1884c7be0d87045c69153d497fc43317843",
          "transactionIndex": "0x2",
          "logIndex": "0x3",
          "removed": false
        },
        {
          "address": "0xad995c290eea192fc8585179ba9d576eae34fe8b",
          "topics": [
            "0xbbe72b7d9dcb594ee398a4a617885aba53d833e2aad601c813ce9df99fdeb49b",
            "0x00000000000000000000000003f60361aa488826e7da7d7adb2e1c6fc96d1b8b"
          ],
          "data": "0x0000000000000000000000000000000000000000000000000000000000000001",
          "blockHash": "0x2b29985648dd001f0dcda46724fa2896648dc6e1c3e0cde5b3aeb62c3e3440e2",
          "blockNumber": "0x1da9e42",
          "blockTimestamp": "0x695a3f64",
          "transactionHash": "0x45367f138dc7cb91de2209d9ac62b1884c7be0d87045c69153d497fc43317843",
          "transactionIndex": "0x2",
          "logIndex": "0x4",
          "removed": false
        },
        {
          "address": "0xad995c290eea192fc8585179ba9d576eae34fe8b",
          "topics": [
            "0xbbe72b7d9dcb594ee398a4a617885aba53d833e2aad601c813ce9df99fdeb49b",
            "0x00000000000000000000000018bea3cda9de68e74ba9f33f1b2e11ad345112f0"
          ],
          "data": "0x0000000000000000000000000000000000000000000000000000000000000001",
          "blockHash": "0x2b29985648dd001f0dcda46724fa2896648dc6e1c3e0cde5b3aeb62c3e3440e2",
          "blockNumber": "0x1da9e42",
          "blockTimestamp": "0x695a3f64",
          "transactionHash": "0x45367f138dc7cb91de2209d9ac62b1884c7be0d87045c69153d497fc43317843",
          "transactionIndex": "0x2",
          "logIndex": "0x5",
          "removed": false
        },
        {
          "address": "0xad995c290eea192fc8585179ba9d576eae34fe8b",
          "topics": [
            "0xbbe72b7d9dcb594ee398a4a617885aba53d833e2aad601c813ce9df99fdeb49b",
            "0x00000000000000000000000097f9812a67b6cba4f4d9b1013c5f4d708ce9aa9e"
          ],
          "data": "0x0000000000000000000000000000000000000000000000000000000000000001",
          "blockHash": "0x2b29985648dd001f0dcda46724fa2896648dc6e1c3e0cde5b3aeb62c3e3440e2",
          "blockNumber": "0x1da9e42",
          "blockTimestamp": "0x695a3f64",
          "transactionHash": "0x45367f138dc7cb91de2209d9ac62b1884c7be0d87045c69153d497fc43317843",
          "transactionIndex": "0x2",
          "logIndex": "0x6",
          "removed": false
        },
        {
          "address": "0xad995c290eea192fc8585179ba9d576eae34fe8b",
          "topics": [
            "0xbbe72b7d9dcb594ee398a4a617885aba53d833e2aad601c813ce9df99fdeb49b",
            "0x000000000000000000000000d10f51695bc3318759a75335efe61e32727330b6"
          ],
          "data": "0x0000000000000000000000000000000000000000000000000000000000000001",
          "blockHash": "0x2b29985648dd001f0dcda46724fa2896648dc6e1c3e0cde5b3aeb62c3e3440e2",
          "blockNumber": "0x1da9e42",
          "blockTimestamp": "0x695a3f64",
          "transactionHash": "0x45367f138dc7cb91de2209d9ac62b1884c7be0d87045c69153d497fc43317843",
          "transactionIndex": "0x2",
          "logIndex": "0x7",
          "removed": false
        },
        {
          "address": "0xad995c290eea192fc8585179ba9d576eae34fe8b",
          "topics": [
            "0xbbe72b7d9dcb594ee398a4a617885aba53d833e2aad601c813ce9df99fdeb49b",
            "0x0000000000000000000000005e8b38dc8e00c2332ac253600975502cf9fbf36a"
          ],
          "data": "0x0000000000000000000000000000000000000000000000000000000000000001",
          "blockHash": "0x2b29985648dd001f0dcda46724fa2896648dc6e1c3e0cde5b3aeb62c3e3440e2",
          "blockNumber": "0x1da9e42",
          "blockTimestamp": "0x695a3f64",
          "transactionHash": "0x45367f138dc7cb91de2209d9ac62b1884c7be0d87045c69153d497fc43317843",
          "transactionIndex": "0x2",
          "logIndex": "0x8",
          "removed": false
        },
        {
          "address": "0xad995c290eea192fc8585179ba9d576eae34fe8b",
          "topics": [
            "0xbbe72b7d9dcb594ee398a4a617885aba53d833e2aad601c813ce9df99fdeb49b",
            "0x000000000000000000000000dfae672ad0e094ee64e370da99b1e37ab58aac4f"
          ],
          "data": "0x0000000000000000000000000000000000000000000000000000000000000001",
          "blockHash": "0x2b29985648dd001f0dcda46724fa2896648dc6e1c3e0cde5b3aeb62c3e3440e2",
          "blockNumber": "0x1da9e42",
          "blockTimestamp": "0x695a3f64",
          "transactionHash": "0x45367f138dc7cb91de2209d9ac62b1884c7be0d87045c69153d497fc43317843",
          "transactionIndex": "0x2",
          "logIndex": "0x9",
          "removed": false
        }
      ],
      "logsBloom": "0x00000000000000000000000000000100000000000000000000000000008000000000001000000000000000000400000000040000000000000000000000000000008000000000000000000000000000000000000000000000000000000000001000000000000000000000000000000000008000000008000000000020000000000000000000000400008000000000000000000001000100000000000000000000000000000000000040400000000000000000000000002000000000000000000000000000000000000100400000001000400000000000000002000000010000000000000000200040000000000000000000000000000000004000002000000000",
      "type": "0x2",
      "transactionHash": "0x45367f138dc7cb91de2209d9ac62b1884c7be0d87045c69153d497fc43317843",
      "transactionIndex": "0x2",
      "blockHash": "0x2b29985648dd001f0dcda46724fa2896648dc6e1c3e0cde5b3aeb62c3e3440e2",
      "blockNumber": "0x1da9e42",
      "gasUsed": "0x3b208",
      "effectiveGasPrice": "0xfe",
      "blobGasUsed": "0x15310",
      "from": "0x656fe1c1a9c92560d9183c42b8e6882c9e440b50",
      "to": "0xad995c290eea192fc8585179ba9d576eae34fe8b",
      "contractAddress": null,
      "daFootprintGasScalar": "0x190",
      "l1BaseFeeScalar": "0x2af8",
      "l1BlobBaseFee": "0x1",
      "l1BlobBaseFeeScalar": "0x109618",
      "l1Fee": "0x21e",
      "l1GasPrice": "0x8",
      "l1GasUsed": "0xd99"
    },
    {
      "status": "0x1",
      "cumulativeGasUsed": "0x1fd3ba",
      "logs": [
        {
          "address": "0x0000000071727de22e5e9d8baf0edac6f37da032",
          "topics": [
            "0x2da466a7b24304f47e87fa2e1e5a81b9831ce54fec19055ce277ca2f39ba42c4",
            "0x000000000000000000000000ad995c290eea192fc8585179ba9d576eae34fe8b"
          ],
          "data": "0x000000000000000000000000000000000000000000000000002386f26fc10000",
          "blockHash": "0x2b29985648dd001f0dcda46724fa2896648dc6e1c3e0cde5b3aeb62c3e3440e2",
          "blockNumber": "0x1da9e42",
          "blockTimestamp": "0x695a3f64",
          "transactionHash": "0x1b69424f10838415d73072178c81016123d9f18dee7dbb5fd9b8823e5cd199f8",
          "transactionIndex": "0x3",
          "logIndex": "0xa",
          "removed": false
        },
        {
          "address": "0xad995c290eea192fc8585179ba9d576eae34fe8b",
          "topics": [
            "0x2da466a7b24304f47e87fa2e1e5a81b9831ce54fec19055ce277ca2f39ba42c4",
            "0x000000000000000000000000ad995c290eea192fc8585179ba9d576eae34fe8b"
          ],
          "data": "0x000000000000000000000000000000000000000000000000002386f26fc10000",
          "blockHash": "0x2b29985648dd001f0dcda46724fa2896648dc6e1c3e0cde5b3aeb62c3e3440e2",
          "blockNumber": "0x1da9e42",
          "blockTimestamp": "0x695a3f64",
          "transactionHash": "0x1b69424f10838415d73072178c81016123d9f18dee7dbb5fd9b8823e5cd199f8",
          "transactionIndex": "0x3",
          "logIndex": "0xb",
          "removed": false
        }
      ],
      "logsBloom": "0x00000000000000000000000000000000000000000000000000000000000000000000000000000000000000000400000000000000000000000000000000000000000000000000080000000000000000000040000000000000000000000000200000000000000800000000000000000000000000000000000000000000000200000000000000000000000000000000000000000000000000000000000000000000000000000000000000000000000000000000000000000000000000000000000000000000000000400000400000000000040000000000000000000000000000000040000000200000000000000000000000000800000000000000000000000000",
      "type": "0x2",
      "transactionHash": "0x1b69424f10838415d73072178c81016123d9f18dee7dbb5fd9b8823e5cd199f8",
      "transactionIndex": "0x3",
      "blockHash": "0x2b29985648dd001f0dcda46724fa2896648dc6e1c3e0cde5b3aeb62c3e3440e2",
      "blockNumber": "0x1da9e42",
      "gasUsed": "0xe704",
      "effectiveGasPrice": "0xfe",
      "blobGasUsed": "0x9c40",
      "from": "0x656fe1c1a9c92560d9183c42b8e6882c9e440b50",
      "to": "0xad995c290eea192fc8585179ba9d576eae34fe8b",
      "contractAddress": null,
      "daFootprintGasScalar": "0x190",
      "l1BaseFeeScalar": "0x2af8",
      "l1BlobBaseFee": "0x1",
      "l1BlobBaseFeeScalar": "0x109618",
      "l1Fee": "0xf9",
      "l1GasPrice": "0x8",
      "l1GasUsed": "0x640"
    }
  ],
  "libraries": [],
  "pending": [],
  "returns": {},
  "timestamp": 1767522151239,
  "chain": 4202,
  "commit": "eee9003"
}